:10000000A821002031010000C5010000C501000049
:1000100000000000000000000000000000000000E0
:10002000000000000000000000000000C50100000A
:100030000000000000000000C5010000C501000034
:10004000C5010000C501000051170000C5010000F6
:10005000C5010000C5010000C5010000C501000088
:1000600085270000A1270000C5010000C501000090
:10007000C5010000C5010000C5010000C501000068
:10008000C5010000F1280000C501000000000000CB
:1000900000000000C5010000C5010000C50100000E
:1000A000C5010000C5010000C5010000C501000038
:1000B0000000000010B5064C2378002B07D1054B3B
:1000C000002B02D0044800E000BF0123237010BDC4
:1000D0003C0000200000000008470000084B10B55D
:1000E000002B03D00749084800E000BF0748036819
:1000F000002B00D110BD064B002BFBD09847F9E731
:1001000000000000400000200847000008470000F1
:100110000000000080B500AF034B9847034B9847A1
:10012000C046BD4680BDC046F9090000E12B000075
:1001300080B582B000AF194B7B60194B3B607A6889
:100140003B689A420CD007E03B681A1D3A607A6817
:10015000111D796012681A603A68124B9A42F3D303
:10016000114B3B6004E03B681A1D3A6000221A60A4
:100170003A680E4B9A42F6D30D4B7B600D4B7A6872
:10018000FF218A439A600C4A536880210B435360D5
:100190000A4B98470A4B9847FEE7C04608470000BD
:1001A000000000203C0000203C000020A8010020AE
:1001B0000000000000ED00E000400041C1440000EC
:1001C000F529000080B500AFFEE780B584B000AF30
:1001D000F8607A600B23FB180A1C1A700B23FB18BB
:1001E0001A78FB68203292007968D150C046BD462B
:1001F00004B080BD80B582B000AF78607B68DB69F9
:1002000004221A437B68DA61C046BD4602B080BD55
:1002100080B584B000AFF8607A600B23FB180A1C2D
:100220001A700B23FB181B78FA68DB01D31808330C
:100230007A681A60C046BD4604B080BD80B584B0FF
:1002400000AFF8607A600B23FB180A1C1A700B23AE
:10025000FB181B78FA68DB01D31804337A681A603C
:10026000C046BD4604B080BD80B584B000AFF86024
:100270007A600B23FB180A1C1A700B23FB181B78DF
:10028000FA68DB01D31818337A681A60C046BD4695
:1002900004B080BD80B584B000AFF8607A600B23F5
:1002A000FB180A1C1A700B23FB181B78FA68DB0179
:1002B000D31814337A681A60C046BD4604B080BDB6
:1002C00090B585B000AF78600C0010001900FB1CE1
:1002D000221C1A70BB1C021C1A707B1C0A1C1A7090
:1002E000FB1C1978BB1C1A780F23FB187868302484
:1002F000C90141188A18121912781A700F23FB18B5
:100300000F22BA1812780F218A431A707B1C1B78AF
:100310000F221340D9B20F23FB180F22BA181278FC
:100320000A431A70FB1C1A78BB1C1B7879683020B2
:10033000D2018A18D3181B180F22BA1812781A7013
:10034000C046BD4605B090BD90B585B000AF7860A1
:100350000C0010001900FB1C221C1A70BB1C021C94
:100360001A707B1C0A1C1A70FB1C1978BB1C1A78AB
:100370000F23FB1878683024C90141188A18121914
:1003800012781A700F23FB180F22BA1812780F2157
:100390000A401A707B1C1B781B01D9B20F23FB1873
:1003A0000F22BA1812780A431A70FB1C1A78BB1C69
:1003B0001B7879683020D2018A18D3181B180F22B5
:1003C000BA1812781A70C046BD4605B090BD90B5F7
:1003D00085B000AF78600C0010001900FB1C221CD7
:1003E0001A70BB1C021C1A707B1C0A1C1A70FB1CA6
:1003F0001978BB1C1A780F23FB1878684024C901B0
:1004000041188A18121912781A700F23FB180F223C
:10041000BA18127801218A431A707B1C19780F23AD
:10042000FB180F22BA1812780A431A70FB1C1A78AC
:10043000BB1C1B7879684020D2018A18D3181B187E
:100440000F22BA1812781A70C046BD4605B090BD8A
:10045000B0B582B000AF786008001100FB1C021C30
:100460001A70BB1C0A1C1A70FB1C1A78BB1C1B7868
:10047000F91C0878B91C09787C684025C00120184F
:10048000411849190978C9B204200143CCB27968EE
:100490004020D2018A18D3181B18221C1A70C0469B
:1004A000BD4602B0B0BDB0B582B000AF7860080004
:1004B0001100FB1C021C1A70BB1C0A1C1A70FB1CCE
:1004C0001A78BB1C1B78F91C0878B91C09787C6861
:1004D0004025C0012018411849190978C9B20420E3
:1004E0008143CCB279684020D2018A18D3181B18F6
:1004F000221C1A70C046BD4602B0B0BD80B584B0A3
:1005000000AFF8607A600B23FB180A1C1A700B23EB
:10051000FB181B78FA68DB01D31828337A681A6055
:10052000C046BD4604B080BD80B582B000AF396022
:100530001100FB1D021C1A70BB1D0A1C1A70BB1D8A
:100540001B78012B23D0022B3FD0002B5DD13A68C2
:10055000FB1D1978C023DB051800314B98473B6819
:100560001B041B0C8022D2051A43FB1D1B782D484F
:1005700019002D4B98473B681B0CC02212061A43EA
:10058000FB1D1B7827481900274B984743E03A6822
:10059000FB1D1978C023DB051800214B98473B68E9
:1005A0001B041B0C214A1A43FB1D1B781D48190014
:1005B0001D4B98473B681B0C1D4A1A43FB1D1B78BB
:1005C00018481900184B984725E03A68FB1D197820
:1005D000C023DB051800174B98473B681B041B0C16
:1005E0008022D2051A43FB1D1B780E4819000E4BC2
:1005F00098473B681B0CC02212061A43FB1D1B7850
:1006000008481900084B984705E00B4B4622190093
:1006100000200A4B9847C046BD4602B080BDC04688
:100620003D02000000280040FD04000000000240E0
:10063000000002C01102000018450000550E000025
:1006400080B582B000AF39601100FB1D021C1A702A
:10065000BB1D0A1C1A70BB1D1B78002B08D03A6802
:10066000FB1D1978C023DB051800074B984707E0EE
:100670003A68FB1D1978C023DB051800034B984727
:10068000C046BD4602B080BD690200009502000070
:1006900090B583B000AF040008001100FB1D221CC0
:1006A0001A70BB1D021C1A707B1D0A1C1A707B1D60
:1006B0001B78012B0CD0022B29D0002B46D1BB1D5F
:1006C0001A78FB1D1B7827481900274B984744E0F0
:1006D000BB1D1B7801229A40FB1D1978C023DB0546
:1006E0001800224B9847BB1D1A78FB1D1B781D482C
:1006F00019001F4B9847BB1D1B7801229A40FB1D18
:100700001978C023DB0518001A4B984725E0BB1D5C
:100710001B7801229A40FB1D1978C023DB051800C5
:10072000124B9847BB1D1A78FB1D1B780D4819000A
:100730000F4B9847BB1D1B7801229A40FB1D19786F
:10074000C023DB0518000C4B984706E00B4B8922B1
:10075000190000200A4B9847C046C046BD4603B06A
:1007600090BDC04600280040A70400003D020000E4
:1007700051040000690200009502000018450000C5
:10078000550E000090B585B000AF786039607B6889
:100790005A090F23FB181A707B68DAB20E23FB1874
:1007A0001F210A401A703B6801330AD10E23FB183F
:1007B0001A780F23FB1819781B4800231B4CA047FD
:1007C0002EE00E23FB181A780F23FB181978164811
:1007D0000123164CA0470E23FB181B78012213405F
:1007E0000FD00E23FB181B785B08DAB23B68D8B237
:1007F0000F23FB1819780C4C030020000C4CA04769
:100800000EE00E23FB181B785B08DAB23B68D8B207
:100810000F23FB181978044C03002000054CA04757
:10082000C046BD4605B090BD00280040CF03000083
:1008300049030000C102000080B582B000AF020091
:10084000FB1D1A70BB1D0A1C1A70FB1D1B785B096F
:10085000D8B2FB1D1B781F221340D9B2BB1D1B78D9
:100860001A00034B9847C046BD4602B080BDC04643
:100870009106000080B582B000AF786039603A68B8
:100880007B6811001800034B9847C046BD4602B074
:1008900080BDC0468507000080B582B000AF020071
:1008A000FB1D1A70BB1D0A1C1A70FB1D1B785B090F
:1008B000D8B2FB1D1B781F22134001229A40110061
:1008C000BB1D1B781A00034B9847C046BD4602B0BB
:1008D00080BDC0462905000080B582B000AF02008F
:1008E000FB1D1A70BB1D0A1C1A70FB1D1B785B09CF
:1008F000D8B2FB1D1B781F22134001229A40110021
:10090000BB1D1B781A00034B9847C046BD4602B07A
:1009100080BDC0464106000080B500AF024B98473D
:10092000C046BD4680BDC0467112000080B500AF14
:1009300000210820094B9847094B19000820094B52
:10094000984700210920054B9847074B19000920BB
:10095000044B9847C046BD4680BDC04639080000DC
:1009600003000800750800000300090080B500AF0F
:10097000094B402214211800084B9847064B43228C
:1009800011211800054B9847054B1800054B984757
:10099000C046BD4680BDC04600180040CB010000E7
:1009A00000040040F501000080B500AF064B9847F9
:1009B000064A074B11001800064B9847064B98470C
:1009C000C046BD4680BDC0466D090000000800421B
:1009D000E8000020ED0C00002D09000080B500AFFC
:1009E000034B1800034B9847C046BD4680BDC04628
:1009F00010E000E0BD0B000080B500AF684B9847E9
:100A000000210220674B984702210220664B98473D
:100A100001235B4219000220644B98470021032008
:100A2000604B9847022103205F4B984701235B42AC
:100A3000190003205D4B984700210620594B984729
:100A400002210620584B984701235B4219000620DB
:100A5000564B984701210720534B98470021072008
:100A6000534B984701235B42190007204F4B98478F
:100A700001210A204C4B984700210A204C4B9847F3
:100A800001235B4219000A20484B984701210B20A3
:100A9000454B984700210B20454B984701235B426B
:100AA00019000B20414B984700210E203D4B9847E1
:100AB00002210E203C4B984701235B4219000E2077
:100AC0003A4B984700210F20364B984702210F20C0
:100AD000354B984701235B4219000F20334B984751
:100AE00001211220304B984700211220304B9847AB
:100AF00001235B42190012202C4B9847012113203F
:100B0000294B984700211320294B984701235B422A
:100B100019001320254B984701211620224B984796
:100B200000211620224B984701235B421900162012
:100B30001E4B9847002117201A4B98470221172077
:100B4000194B984701235B4219001720174B984710
:100B500000211820134B984702211820124B984768
:100B600001235B4219001820104B984700211920DF
:100B70000C4B9847022119200B4B984701235B42ED
:100B800019001920094B984700211B20054B984755
:100B9000084B9847084B9847C046BD4680BDC046A5
:100BA00019090000D9080000990800007508000024
:100BB00039080000A9090000DD09000080B582B0F5
:100BC00000AF7860054B7A681A60044B1B68180008
:100BD000034B9847C046BD4602B080BD5800002078
:100BE000E127000090B583B000AF0200BB1D1A8062
:100BF000074B1C68BB1D1B881800064B9847030059
:100C000019002000044B9847C046BD4603B090BD74
:100C10005800002021120000FD27000080B58AB096
:100C200000AFF860B960BB1D1A80FB68143B7B62A3
:100C30007B6A9A8B1423FB181A80BB1D1A88142315
:100C4000FB185A601423FB180C4A5A801423FB1813
:100C5000BA689A607B6A1422BA1811001800084B0F
:100C6000984703003B623B6A002B01D03B6A01E0DE
:100C7000BB1D1B881800BD460AB080BD0180FFFF68
:100C80007123000080B58AB000AFF860B960BB1D69
:100C90001A80FB68143B7B627B6A9A8B1423FB18D7
:100CA0001A80BB1D1A881423FB185A601423FB18E2
:100CB0000C4A5A801423FB18BA689A607B6A142283
:100CC000BA1811001800084B984703003B623B6AB2
:100CD000002B01D03B6A01E0BB1D1B881800BD46FC
:100CE0000AB080BD0080FFFF7123000080B584B092
:100CF00000AF786039607B685A1E9341DBB20E49C1
:100D00005E2218000D4B98477B683A681100180066
:100D10000B4B98470300FB60FB68002B01D0FB687E
:100D200006E07B68074A9A617B68074A5A6100239C
:100D30001800BD4604B080BD50450000550E0000AF
:100D40004D2100001D0C0000850C000080B582B014
:100D500000AF78607B681800034B984703001800C9
:100D6000BD4602B080BDC0469521000080B584B06C
:100D700000AFF8607A600A23FB180A1C1A800A2365
:100D8000FB181B889B059B0D1AB27B6819B2802348
:100D9000DB000B401BB213431BB29AB2FB689A8371
:100DA000FB689B8B1800BD4604B080BD80B584B045
:100DB00000AFF860B960BB1D1A80FB68002B04D03F
:100DC000BB68002B01D0012300E000231A1C012383
:100DD0001340DBB2084934221800084B9847FB68DF
:100DE0001B68BA1D1288B968F86898470300180094
:100DF000BD4604B080BDC0466C450000550E0000E5
:100E000080B584B000AFF860B960BB1D1A80FB6884
:100E1000002B04D0BB68002B01D0012300E000238D
:100E20001A1C01231340DBB208493D221800084B6D
:100E30009847FB685B68BA1D1288B968F8689847DC
:100E400003001800BD4604B080BDC0466C450000DC
:100E5000550E000080B584B000AFB9607A600F23F2
:100E6000FB18021C1A700F23FB181B780122534039
:100E7000DBB2002B00D000BEC046BD4604B080BD32
:100E800080B586B000AFF8607A600B23FB180A1CAF
:100E90001A701723FB180B22BA181278D2081A708E
:100EA0000B23FB181B780722134001229A401623BC
:100EB000FB181A70FB68002B09D07B68002B06D04A
:100EC0000B23FB181B78072B01D8012300E000231C
:100ED0001A1C01231340DBB22B49312218002B4B83
:100EE00098471723FB181B78FA68D3181B7916222A
:100EF000BA1812781340DBB2002B02D002235B42F7
:100F00003EE0FA68224B11001800224B984703007C
:100F10001A0001235340DBB2002B0CD0FB680433D2
:100F20000122002118001C4B9847FA68184B110049
:100F300018001A4B9847FB687A689A601723FB18C9
:100F40001B781722BA181278F9688A1811791622B4
:100F5000BA1812780A43D1B2FA68D3180A1C1A7167
:100F60001723FB181B781722BA1812780C49895CD2
:100F70001622BA1812780A43D1B2094AD154002372
:100F80001800BD4606B080BD80450000550E00002B
:100F90005C000020A50F000009450000D90F0000EB
:100FA0006000002080B584B000AF786039607B6855
:100FB0001B68FB6008E0FA683B689A4201D1012394
:100FC00006E0FB681B68FB60FB68002BF3D1002385
:100FD0001800BD4604B080BD80B582B000AF786017
:100FE00039603A687B68110018000E4B984703007F
:100FF0005A1E9341DBB201225340DBB21A1C01237B
:101000001340DBB2084939221800084B98477B6827
:101010001A683B681A607B683A681A60C046BD4629
:1010200002B080BDA50F0000A0450000550E0000D5
:1010300090B583B000AF39601100BB1D021C1A804F
:101040007B1D0A1C1A707B1D1B78043B042B59D88E
:101050009A00344BD3181B689F46BB1D1C883A6806
:10106000314B324910009847030063435A1E2E4B00
:101070000A2110009847030001334EE0BB1D1C8875
:101080003A68294B2A4910009847030063435A1EC7
:10109000254B642110009847030001333DE0BB1D40
:1010A0001C883868204BFA2291009847030063435C
:1010B000581E1D4BFA2291009847030001332CE083
:1010C000BB1D1C883A68184B642110009847030028
:1010D00063435A1E144B164910009847030001330E
:1010E0001BE0BB1D1C883A680F4B0A211000984773
:1010F000030063435A1E0C4B0C4910009847030031
:1011000001330AE0BB1D1B883A6853435A1E064B45
:10111000084910009847030001331800BD4603B08A
:1011200090BDC046E44500007D360000A086010069
:101130001027000040420F0090B583B000AF396027
:101140001100BB1D021C1A807B1D0A1C1A707B1D1E
:101150001B78043B042B4BD89A002D4BD3181B68EB
:101160009F46BB1D1C883A682A4B2B4910009847A4
:10117000030063436422534345E0BB1D1C883A6867
:10118000244B264910009847030063431A001300BC
:101190009B009B185B0036E0BB1D1C8838681D4B0C
:1011A000FA2291009847030063432CE0BB1D1C8882
:1011B0003A68184B642110009847030063435A1E95
:1011C000144B0A2110009847030001331BE0BB1D9C
:1011D0001C883A680F4B0A211000984703006343AC
:1011E0005A1E0C4B642110009847030001330AE09B
:1011F000BB1D1B883A685343581E064BFA229100C8
:101200009847030001331800BD4603B090BDC046A7
:10121000F84500007D360000A08601001027000080
:1012200080B582B000AF0200BB1D1A800549BB1D0E
:101230001B8807221800044B984703001800BD467E
:1012400002B080BD00093D003911000080B582B0B8
:1012500000AF786039607B685A683B685B001E218C
:101260000B401A437B685A60C046BD4602B080BD41
:1012700080B500AF0A4B002118000A4B98470220A6
:10128000094B9847094B9847094B9847094B984792
:10129000094B9847FF20094B9847C046BD4680BD83
:1012A000004000414D1200006D1600004114000086
:1012B00041150000AD1300008D1500002113000042
:1012C00080B582B000AF78603960C0467B685B68EB
:1012D0003A681340FAD1C046BD4602B080BD000056
:1012E00080B584B000AFF8607A600B23FB180A1C4D
:1012F0001A700B23FB181A78FB6808329200796881
:10130000D150054AFB6811001800044B9847C046AD
:10131000BD4604B080BDC046FD070000C1120000FC
:1013200080B582B000AF78607B680122134005D0A1
:10133000044A054B00211800044B9847C046BD469F
:1013400002B080BD0601010000180040E11200005B
:1013500080B582B000AF78600A00FB1C1A707B6811
:10136000FA1C12781A71C046BD4602B080BD80B525
:1013700082B000AF78600A00FB1C1A707B68FA1C10
:1013800012785A71C046BD4602B080BD80B582B0A9
:1013900000AF78600A00FB1C1A707B68FA1C127898
:1013A0009A71C046BD4602B080BD000080B582B0D3
:1013B00000AF0A4B7B607B6808211800084B9847F8
:1013C0007B6804211800074B98477B6801211800AF
:1013D000054B9847C046BD4602B080BD00040040A2
:1013E0008D1300006F1300005113000080B582B010
:1013F00000AF786039607B683A681A61C046BD46C4
:1014000002B080BD80B584B000AF78607B68DB69D6
:10141000FB60FB681B0A1F221340FB60FB6818007F
:10142000BD4604B080BD80B582B000AF7860396041
:101430007B683A68DA61C046BD4602B080BD0000F4
:1014400080B582B000AF104B7B60BB1C00221A80BD
:101450007B6818000D4B98470200BB1C1A80BB1C10
:101460001B881B021A00F8235B011A407B681100DD
:101470001800074B98477B6805211800054B9847D3
:10148000C046BD4602B080BD0010004005140000FB
:1014900027140000ED13000080B582B000AF786023
:1014A0000A00FB1C1A70C0467B6838229B5CDBB2CA
:1014B000FA1C12781340DBB2002BF5D1C046BD46B2
:1014C00002B080BD80B582B000AF78607B68DB6819
:1014D0001B09012213405A1E9341DBB21800BD467E
:1014E00002B080BD80B582B000AF78607B681B7DA4
:1014F000DBB2802252421343DAB27B681A757B68F2
:101500000E211800024B9847C046BD4602B080BD70
:101510009914000080B582B000AF78600A00FB1C0F
:101520001A707B68FA1C12781A757B680221180001
:10153000024B9847C046BD4602B080BD99140000DA
:1015400080B582B000AF0D4B7B607B6882211800B4
:101550000B4B9847C0467B6818000A4B984703001E
:101560001A0001235340DBB2002BF4D17B68180032
:10157000054B9847C046BD4602B080BD000C0040F8
:1015800015150000C5140000E514000080B582B0F8
:1015900000AF044B7B60BB1C00221A80C046BD46D6
:1015A00002B080BD000C004080B582B000AF786012
:1015B0007B689B79DBB21800BD4602B080BD80B568
:1015C00082B000AF78600A00FB1C1A707B68FA1CBE
:1015D00012789A71C046BD4602B080BD80B584B015
:1015E00000AF78600A00FB1C1A700F23FB187A68A2
:1015F00092781A700F23FB18FA1C1B78127813408C
:10160000DAB20F23FB1803210A401A700F23FB18CC
:101610001B781800BD4604B080BD80B584B000AF13
:1016200078600A00FB1C1A700F23FB187A68927806
:101630001A700F23FB180F22BA18127803218A435D
:101640001A70FB1C1B7803221340D9B20F23FB181E
:101650000F22BA1812780A431A707B680F22BA1840
:1016600012789A70C046BD4604B080BD80B582B085
:1016700000AF0200FB1D1A708023DB050321180058
:10168000104B984703001A00FB1D1B78934215D09E
:101690008023DB05FF2118000B4B9847FB1D1A78B0
:1016A0008023DB0511001800084B9847C0468023B3
:1016B000DB051800064B9847031EF8D0C046BD4610
:1016C00002B080BDDD150000BF1500001B16000034
:1016D000A915000080B582B000AF78607B688022D9
:1016E00052009A81C046BD4602B080BD80B582B02E
:1016F00000AF78607B689B899BB21800BD4602B042
:1017000080BD000090B585B000AF78607B681B6835
:101710000E22BC1818000C4B9847030023800E23A0
:10172000FB181A8880235B00134009D07B685B6834
:101730007A68100098477B681B681800034B98472D
:10174000C046BD4605B090BDED160000D5160000A0
:1017500080B500AF034B1B681800034B9847C04689
:10176000BD4680BD640000200517000080B582B032
:1017700000AF78603960C0467B68DB693A68134027
:10178000FAD1C046BD4602B080BD80B582B000AF80
:10179000786039607B68DB693A6813405A1E934170
:1017A000DBB21800BD4602B080BD80B582B000AF8C
:1017B00078607B6801221A76C046BD4602B080BDC3
:1017C00080B582B000AF78607B6802221A76C0468E
:1017D000BD4602B080BD80B582B000AF78607B6846
:1017E0001B7EDBB21800BD4602B080BD80B582B062
:1017F00000AF78607B681B7EDBB21A0001231340C8
:101800005A1E9341DBB21800BD4602B080BD80B5C0
:1018100082B000AF78607B681B7EDBB25B08012280
:1018200013405A1E9341DBB21800BD4602B080BD82
:1018300080B582B000AF78607B681B7EDBB29B080E
:10184000012213405A1E9341DBB21800BD4602B07C
:1018500080BD80B582B000AF78607B681B7EDBB254
:10186000DB09012213405A1E9341DBB21800BD462A
:1018700002B080BD80B582B000AF78607B68802206
:101880001A76C046BD4602B080BD80B582B000AFBA
:1018900078607B689B7DDBB21A00012313405A1EDF
:1018A0009341DBB21800BD4602B080BD80B582B066
:1018B00000AF78607B6801221A75C046BD4602B051
:1018C00080BD80B582B000AF78607B689B7DDBB265
:1018D0005B08012213405A1E9341DBB21800BD463B
:1018E00002B080BD80B582B000AF78607B68022214
:1018F0001A75C046BD4602B080BD000080B582B0FA
:1019000000AF78607B681B6802221A437B681A600C
:101910007B6803211800034B9847C046BD4602B0C0
:1019200080BDC0466D17000080B582B000AF786002
:101930007B681B68022293431A007B681A607B68ED
:1019400003211800024B9847C046BD4602B080BD37
:101950006D17000080B584B000AF78607B681B68AD
:10196000FB60FB68DB0E01221340FB60FB685A1E24
:101970009341DBB21800BD4604B080BD80B584B091
:1019800000AF786039607B6803211800064B9847E8
:101990007B681B68FB60FB683A681340FB60FB6870
:1019A0001800BD4604B080BD6D17000080B582B040
:1019B00000AF786039607B683A681A607B68032101
:1019C0001800034B9847C046BD4602B080BDC046D4
:1019D0006D17000080B582B000AF78607B685B68EF
:1019E000802252001A437B685A607B6804211800E9
:1019F000024B9847C046BD4602B080BD6D1700003F
:101A000080B582B000AF78607B685B68064A1A4098
:101A10007B685A607B6804211800044B9847C046D5
:101A2000BD4602B080BDC046FFFEFFFF6D1700003F
:101A300080B582B000AF78607B685B688022D2029C
:101A40001A437B685A607B6804211800024B984750
:101A5000C046BD4602B080BD6D17000080B582B0A3
:101A600000AF78607B685B68064A1A407B685A6002
:101A70007B6804211800044B9847C046BD4602B05D
:101A800080BDC046FFFFFBFF6D17000080B582B030
:101A900000AF786039607B685A683B681904C023DE
:101AA0009B020B401A437B685A607B680421180034
:101AB000024B9847C046BD4602B080BD6D1700007E
:101AC00080B582B000AF786039607B683A685A6050
:101AD0007B6804211800034B9847C046BD4602B0FE
:101AE00080BDC0466D17000080B582B000AF786041
:101AF00039607B683A68DA60C046BD4602B080BD96
:101B000080B584B000AF78600A00FB1C1A707B6857
:101B10005B6AFB60FB680B4A1340FB60FB1C1B7895
:101B20009B031A00FB681343FB607B68FA685A62E8
:101B30007B6804211800044B9847C046BD4604B09A
:101B400080BDC046FFBFFFFF6D17000080B582B0AB
:101B500000AF786039607B683A685A627B6804211C
:101B60001800034B9847C046BD4602B080BDC04632
:101B70006D17000080B582B000AF78607B680421EB
:101B80001800044B98477B685B6A1800BD4602B09A
:101B900080BDC0466D17000080B582B000AF786090
:101BA0000A00FB1C1A707B68FA1C282112785A5410
:101BB0007B6804211800034B9847C046BD4602B01D
:101BC00080BDC0466D17000080B582B000AF786060
:101BD0007B6804211800054B98477B6828229B5C92
:101BE000DBB21800BD4602B080BDC0466D170000D4
:101BF00080B582B000AF78607B6828229B5CDBB246
:101C00001800BD4602B080BD80B582B000AF7860DC
:101C10007B681B8D9BB21800BD4602B080BD80B5AD
:101C200082B000AF78607B685B8B9BB2DB080122DF
:101C300013405A1E9341DBB21800BD4602B080BD6E
:101C400080B582B000AF78600A00BB1C1A807B6848
:101C5000BA1C12885A83C046BD4602B080BD80B50A
:101C600082B000AF78607B685B8B9BB21800BD468A
:101C700002B080BD80B582B000AF78607B6804217F
:101C80001800074B98477B685B8B9BB21B099BB284
:101C9000032213409BB21800BD4602B080BDC0466F
:101CA0006D17000080B582B000AF78607B680421BA
:101CB0001800044B98477B685B8B9BB21800BD46AD
:101CC00002B080BD6D17000080B582B000AF7860B3
:101CD0000A00BB1C1A807B68BA1C12885A837B6876
:101CE00004211800024B9847C046BD4602B080BD93
:101CF0006D17000080B582B000AF78607B68084A3D
:101D0000934201D1052306E07B68BE221206944669
:101D100063449B0ADBB21800BD4602B080BDC046DA
:101D20000004004390B585B000AF78607B689B6984
:101D3000FB60FB681800354B9847031E0FD0FB680B
:101D40001800334B9847031E09D0FB681800314B2D
:101D500098477B681B687A681000984753E0FB68D7
:101D600018002D4B9847031E0FD0FB6818002B4B13
:101D70009847031E09D0FB681800294B98477B68D9
:101D80009B687A68100098473DE0FB681800254B77
:101D90009847031E1BD0FB681800234B984703008D
:101DA0001A003723134005D0FB683F2118001F4B52
:101DB000984728E07B685C68FB6818001C4B9847D4
:101DC0000300DAB27B6811001800A0471BE0FB6833
:101DD0001800184B9847031E15D0FB681800164BC7
:101DE00098477B68DB687A6810009847FB681800A2
:101DF0000D4B98470300BB60BB689AB2FB681100AB
:101E000018000A4B9847BD4605B090BDED1700007D
:101E10008B180000AD1800000F180000C318000058
:101E2000E5180000311800005F1C0000411C000094
:101E3000091C0000531800007518000090B585B00B
:101E400000AF78600E23FC187B681800194B984788
:101E5000030023700F23FB1800221A7019E00F23D0
:101E6000FB181A78144913005B009B18DB005B5CBD
:101E70000E22BA1812789A4204D10F23FB181B784D
:101E80005BB213E00F23FB181A780F23FB18013203
:101E90001A700F23FB181B78002BE0D0074A084B61
:101EA00019000020074B984701235B421800BD46EC
:101EB00005B090BDF51C000014000020C90300000F
:101EC0000C460000550E000080B582B000AF78606F
:101ED0007B6803211800034B9847C046BD4602B0FB
:101EE00080BDC0468D1A000090B587B000AFF86085
:101EF000B9607A60FB681800874B984703007B61E4
:101F00001223FC18FB681800844B984703002380B9
:101F1000BB680122134000D1A3E01223FB181B88E9
:101F20000222134020D0FB6818007D4B98477B6845
:101F30005B889BB28022520113439AB27B685A801D
:101F40007B685B889BB2774A13409AB27B685A8061
:101F50001223FB181B880122134002D005235B4289
:101F6000D6E004235B42D3E01223FB181B88042233
:101F7000134021D07B685B68002B08DD7B685B88A1
:101F80009BB28022520113439AB27B685A807B68CD
:101F90005B889BB21BB2002B03DAFB681800624B14
:101FA00098477B685B889BB25E4A13409AB27B6815
:101FB0005A8002235B42ABE07B685B889BB21A00CD
:101FC0008023DB00134021D07B681B881B125B0041
:101FD0001A0006231A401400FB681800534B984758
:101FE00002008023DB0113402343F1221A43FB68E4
:101FF000110018004E4B98477B685B889BB24D4A96
:1020000013409AB27B685A80002381E07B685B684A
:10201000002B12D17B685B889BB21BB2002B03DACA
:10202000FB681800404B98477B685B889BB23D4A31
:1020300013409AB27B685A8011E07B689B681A78DB
:10204000FB68110018003C4B98477B689B685A1C42
:102050007B689A607B685B685A1E7B685A600023C5
:1020600056E0BB680222134051D07B685B68002BAE
:1020700046D01223FB181B880422134040D17B68F2
:102080005B685A1E7B685A607B685B68002B02D1D4
:102090007B69002B06D07B685B68012B06D17B69CE
:1020A000002B03D0FB681800244B98477B685B68C3
:1020B000002B15D17B685B889BB21BB2002B07DA23
:1020C000FB6818001E4B9847FB681800164B984792
:1020D0007B685B889BB2134A13409AB27B685A8034
:1020E0007B689C68621C7B689A60FB681800154BD3
:1020F000984703002370FB681800134B984706E0CD
:10210000FB681800104B984702235B4200E0002355
:102110001800BD4607B090BD55190000A51C000071
:10212000AB170000FFFEFFFFC91E0000751B00007B
:102130004D1B0000FFFBFFFF991B0000311A000040
:10214000011A0000C91B0000C117000080B582B051
:1021500000AF786039607B685A1E9341D8B2A723DC
:10216000DA00094B1900094B98477B683A681A61F5
:102170007B683A6811001800054B98470300180067
:10218000BD4602B080BDC0460C460000550E0000A2
:102190003D25000080B582B000AF78607B685A1E94
:1021A0009341DBB2074A08491800084B98477B68FF
:1021B0001B691800064B984703001800BD4602B083
:1021C00080BDC046550500000C460000550E0000BD
:1021D000AD24000080B584B000AF78603960124B48
:1021E000FB607B681B69BB60BB6818000F4B98479E
:1021F00003001A003B681A60FB685A1EFA60002B45
:1022000002D105235B420AE03B681B6801221340B0
:1022100004D13B681B6802221340E5D0002318005C
:10222000BD4604B080BDC046FFFF0000D7170000C8
:1022300090B587B000AF78607B681B697B617B6875
:102240003B617B6918003F4B98470300FB607B684C
:102250005A1E9341DBB23C4A3C4918003C4B98471C
:102260003B695B68012B07D1FB68002B04D07B69BD
:102270001800384B984703E07B691800364B9847A5
:102280003B691B881A008023DB00134028D03B6980
:102290005B889BB21A000123134008D03B695B881E
:1022A0009BB28022D20013439AB23B695A803B69A9
:1022B0001B885B001A00294B1A4014007B69180028
:1022C000274B984702008023DB01134023438022E1
:1022D00012021A437B6911001800224B98471EE036
:1022E0003B691B885B00FF2213403A69528892B217
:1022F000110001220A40511E8A41D2B213431C0030
:102300007B691800164B984702008023DB011340BD
:1023100022001A437B6911001800124B98470823CA
:10232000FA187B68110018000F4B9847B9683A6992
:102330007B6918000D4B984703001800BD4607B095
:1023400090BDC04655190000C50500000C460000B0
:10235000550E0000311A00005D1A0000FE07000053
:10236000751B00004D1B0000D5210000E91E000078
:1023700090B587B000AF786039607B681B693B61BE
:102380007B685A1E9341D8B2BE23DA003D4B190038
:102390003D4B98477B681B695A1E9341DBB23B4A11
:1023A00038491800384B98473B685A1E9341DBB2B6
:1023B000374A34491800344B98477B685B889BB296
:1023C0001A0080235B00134002D006235B4254E0D6
:1023D0003B685B889BB28022520013439AB23B68F1
:1023E0005A807B683A6813CA13C33B691800294BAB
:1023F00098477B681800284B984703007B617B69EE
:10240000002B31D07B685B889BB2244A13409AB280
:102410007B685A807B6930E00C23FA187B681100D6
:1024200018001F4B984703007B617B69002B13D07A
:102430003B685B889BB21BB2002B03DA3B69180038
:10244000184B98477B685B889BB2144A13409AB23A
:102450007B685A807B6910E0F9687A683B691800EC
:10246000114B984703007B617B685B889BB21A0025
:1024700080235B001340CFD17B691800BD4607B0B5
:1024800090BDC0460C460000550E0000F10500004E
:10249000F2050000D519000031220000FFFEFFFF09
:1024A000D5210000C91E0000E91E000080B584B0DF
:1024B00000AF78601A4BFB600423BB607B685A1E38
:1024C0009341DBB2174A18491800184B98477B68AC
:1024D0001800174B984716E0FB68013BFB60FB6850
:1024E000002B10DCBB68013BBB60BB68002B07D036
:1024F0000B4BFB607B68102118000E4B984702E0E5
:1025000006235B4207E07B6818000B4B98470300EB
:10251000012BE1D100231800BD4604B080BDC046A8
:10252000FFFF0000250600000C460000550E0000CD
:10253000FD180000C91C0000751C000080B584B0A7
:1025400000AF786039603B6818004F4B9847030034
:102550001A000F23FB181A703B68012118004B4B1F
:10256000984703001A0001235340DBB2002B25D00B
:102570000F23FB181A78464913005B009B18DB00F9
:10258000CB1804331B681C221340BB603B6802213C
:102590001800404B9847031E08D03B6818003E4B7C
:1025A00098473B68022118003C4B9847BB680122C2
:1025B0001A433B6811001800394B98473B680121CA
:1025C0001800364B98470F23FB181A783049130030
:1025D0005B009B18DB00CB1804331A683B681100C2
:1025E00018002F4B98470F23FB181A78284913001F
:1025F0005B009B18DB00CB1808331A683B6811009E
:102600001800284B98470F23FB181A78204913000D
:102610005B009B18DB00CB180C331A683B68110079
:102620001800214B98470F23FB181A7818491300FC
:102630005B009B18DB00CB1804331B681B0E9BB29E
:10264000032213409AB27B689A817B689B8901229E
:102650009A429B415B42DAB23B6811001800134B6F
:1026600098470F23FB181A78094913005B009B1841
:10267000DB00CB1812331A887B68DA81002318003C
:10268000BD4604B080BDC0463D1E00008B17000053
:10269000140000207D190000291900006D170000AA
:1026A000AD190000C11A0000E91A0000011B00006A
:1026B00090B585B000AF78607B681B68FB60FB68F5
:1026C0001800284B98470300BB60BB68802213406A
:1026D0000FD07B685B685A1E9341DBB2224A2349C4
:1026E0001800234B98477B685B687A68100098470E
:1026F00034E0BB680422134030D0FB6818001D4B47
:10270000984703001A0001235340DBB2002B16D078
:102710007B68DB685A1E9341DBB2174A13491800E5
:10272000134B98477B68DC68FB681800134B98478D
:1027300003001A007B6811001800A0470EE07B68B8
:102740009B685A1E9341DBB20D4A08491800084B9A
:1027500098477B689B687A6810009847C046BD46DA
:1027600005B090BDD7170000A70700000C46000079
:10277000550E00001F1C0000AB070000F11B0000FD
:10278000AE07000080B500AF034B1B681800034B79
:102790009847C046BD4680BD68000020251D00004A
:1027A00080B500AF034B1B681800034B9847C04629
:1027B000BD4680BD6C000020B126000080B582B00F
:1027C00000AF7860044B054A5A60034B05221A603B
:1027D000C046BD4602B080BD10E000E0FFFFFF0034
:1027E00080B582B000AF78607B681800024B9847D4
:1027F000C046BD4602B080BDBD27000080B584B094
:1028000000AF786039603B681A0E0F23FB181A700E
:102810003B68BB6011E0164B164A5A60144B154AD0
:102820009A60C046124B1A6880235B021340F9D0AD
:10283000BB68114A94466344BB600F23FB181B78A6
:102840000F22BA18591E1170002BE4D1084BBA6838
:102850005A60074BBA689A60C046054B1A688023D5
:102860005B021340F9D0C046BD4604B080BDC046EF
:1028700010E000E0FFFFFF00010000FF80B582B024
:1028800000AF78607B689B7ADBB21A0001231340AB
:102890005A1E9341DBB21800BD4602B080BD80B520
:1028A00082B000AF78607B6801229A72C046BD4654
:1028B00002B080BD80B584B000AF78607B68DB6813
:1028C000FB60FB681800084B9847031E08D0FB68A4
:1028D0001800064B98477B681B687A681000984779
:1028E000C046BD4604B080BD7D2800009F28000082
:1028F00080B500AF034B1B681800034B9847C046D8
:10290000BD4680BD70000020B528000080B584B0B1
:1029100000AFF8607A600B23FB180A1C1A700B23B7
:10292000FB181B78FA68DB01D31818337A681A6031
:10293000C046BD4604B080BD80B584B000AFF8602D
:102940007A600B23FB180A1C1A700B23FB181B78E8
:10295000FA68DB01D31814337A681A60C046BD46A2
:1029600004B080BD80B582B000AF39601100FB1D9E
:10297000021C1A70BB1D0A1C1A70BB1D1B78002B91
:1029800008D03A68FB1D1978C023DB051800074BF7
:10299000984707E03A68FB1D1978C023DB0518004B
:1029A000034B9847C046BD4602B080BD0D290000CC
:1029B0003929000080B582B000AF0200FB1D1A70FB
:1029C000BB1D0A1C1A70FB1D1B785B09D8B2FB1DCE
:1029D0001B781F22134001229A401100BB1D1B7857
:1029E0001A00034B9847C046BD4602B080BDC046A2
:1029F0006529000080B500AF064B984701210F20E4
:102A0000054B984701211920034B9847034B9847E2
:102A1000FEE7C04615010000B52900003D36000064
:102A200080B582B000AF78607B681B681800BD4637
:102A300002B080BD80B582B000AF78607B68002BAB
:102A400002D07B681B6800E000231800BD4602B07E
:102A500080BD000080B500AF0A4A0B4B0121180071
:102A60000A4B9847074A084B00211800074B984724
:102A7000044A054B02211800044B9847C046BD4646
:102A800080BDC046D12A000074000020810E0000E5
:102A900080B582B000AF78607B685A1E9341DBB28C
:102AA000074940221800074B98477A68064B1100E7
:102AB0001800064B9847C046BD4602B080BDC046D0
:102AC0003C460000550E000080000020D90F000099
:102AD00080B588B000AF02003960FB1D1A70FB1D85
:102AE0001B78002B2DD13B683B61324B1800324BD9
:102AF00098470300FB6120E03B695A780C23FB18E0
:102B00005A700C23FB1801221A70FB695B680C22B7
:102B1000BA18100098473B691B781A000C23FB1861
:102B20001B7813405A1E9341DAB23B691A70FB6955
:102B30001800224B98470300FB61FB69002BDBD197
:102B400034E0FB1D1B78022B16D11D4B18001A4BCD
:102B500098470300BB610BE0BB695B683A68D2B27F
:102B600010009847BB691800144B98470300BB61DD
:102B7000BB69002BF0D119E0FB1D1B78012B15D18F
:102B8000104B18000C4B984703007B610BE07B69EE
:102B90005B683A68D2B2100098477B691800074B0F
:102BA000984703007B617B69002BF0D1C046BD468E
:102BB00008B080BD80000020212A0000352A0000D6
:102BC000880000208400002080B582B000AF7860CB
:102BD0007B6800221A70C046BD4602B080BD00006E
:102BE00080B500AF054B9847054B064A5A60044B29
:102BF0001800054B9847C046BD4680BD552A0000C9
:102C00008C000020C92B0000912A000080B586B0FE
:102C100000AFF860B960FB1D1A70FB687B610A4A5F
:102C2000B968FB681800094B9847FB681B683B6153
:102C300080231A013B6918211800054B9847FB684F
:102C40001800BD4606B080BD60460000B9350000E2
:102C50006D0D000090B589B000AF78600C23FB18B3
:102C600005221A707B681B68BB6100237B6180238F
:102C70001A01BB6918211800204B9847BB6914330F
:102C80000C22B918012218001D4B984703007B61E4
:102C9000BB6914330C22B91802221800194B98474B
:102CA00003007B610C23FB181B781A001F231340C1
:102CB0001B020C22BA1852789B18FB61FB69124A5E
:102CC000934204DDFB69114A94466344FB61104B57
:102CD000F86998470F4C00220F4BA04703000C00E7
:102CE000190022000D4B080011009847031C3B619E
:102CF0003B69181CBD4609B090BDC0466D0D000073
:102D0000AD0D0000010E0000FF0F000000E0FFFF0E
:102D1000ED420000ED3D00000000B03F71430000B7
:102D200080B582B000AF786039603A687B68110086
:102D300018001E4B98470300013302D101235B4268
:102D400030E03A687B6811001800194B984703007F
:102D5000013302D101235B4224E03A687B68110011
:102D60001800144B98470300013302D101235B4242
:102D700018E03A687B68110018000F4B9847030071
:102D8000013302D101235B420CE03A687B681100F9
:102D900018000A4B98470300013302D101235B421C
:102DA00000E000231800BD4602B080BDC12D000028
:102DB000852F0000613100003D330000193500000F
:102DC00080B586B000AF786039607B681B687B6136
:102DD0007B691433180080231B011A001821644BEF
:102DE00098470C23FB18022200211800614B9847DA
:102DF0001023FB1801221A703B681B685B7BDB18F1
:102E0000DAB21023FB185A703B681B68DB7B002B7F
:102E100007D01023FB185B780133DAB21023FB18BC
:102E20005A703B681B681B7C002B09D01023FB18D1
:102E30009B78802252421343DAB21023FB189A7017
:102E40003B681B685B7C002B08D01023FB189B7829
:102E500040221343DAB21023FB189A703B681B68B8
:102E60009B7C002B08D01023FB189B782022134357
:102E7000DAB21023FB189A703B681B68DB7C002BCE
:102E800008D01023FB189B7810221343DAB21023CA
:102E9000FB189A703B681B68DB7D002B08D0102361
:102EA000FB189B7808221343DAB21023FB189A70A0
:102EB0003B681B681B7D002B08D01023FB189B78F8
:102EC00004221343DAB21023FB189A703B681B6884
:102ED0005B7D002B08D01023FB189B780222134344
:102EE000DAB21023FB189A703B681B689B7D002B9D
:102EF00008D01023FB189B7801221343DAB2102369
:102F0000FB189A707B6914331022B9180322180039
:102F1000194B9847FA239B001800184B98477B6978
:102F200014331022B91801221800134B98477B69FB
:102F300014330C22B91802221800114B98471023A1
:102F4000FB185A780C23FB181B789A4207D11023E0
:102F5000FB189A780C23FB185B789A4202D0012365
:102F60005B4200E000231800BD4606B080BDC046AD
:102F70006D0D000009450000AD0D0000E50B0000DF
:102F8000010E000090B589B000AF786039607B68B1
:102F90001B687B610C23FB18032200211800684B7F
:102FA00098470C23FB1802221A703B681B681A68AA
:102FB0001E23FC18634B101C9847030023803B68BA
:102FC0001B681B68BB611E23FB1800229B5E002B45
:102FD00017DA0C23FB185B7810221343DAB20C23A8
:102FE000FB185A701E23FB181B885B429AB21E23E3
:102FF000FB181A803B681B681B688022120653402E
:10300000BB611E23FB1800229B5E1B111BB2DAB2B0
:103010000C23FB185A701E23FB181B88DBB21B0104
:10302000DAB20C23FB189A70464BB8699847020035
:10303000454B10009847021C444B111CB869984737
:10304000031C1A1C424B4349101C9847031C1A1CB2
:103050001E23FC183B4B101C9847030023801E23A3
:10306000FB1800229B5E562B0FDC1E23FB18002250
:103070009B5E3E2B09DD0C23FB189B780C2213432F
:10308000DAB20C23FB189A702AE01E23FB180022E8
:103090009B5E3D2B0FDC1E23FB1800229B5E302B1A
:1030A00009DD0C23FB189B7808221343DAB20C23AA
:1030B000FB189A7014E01E23FB1800229B5E2F2B36
:1030C0000EDC1E23FB1800229B5E0D2B08DD0C235B
:1030D000FB189B7804221343DAB20C23FB189A7076
:1030E0007B6914330C22B918032218001A4B984735
:1030F0007B6914330C22B91801221800164B98472B
:103100007B6914331022B91802221800134B984718
:103110000C23FB185A781023FB181B789A4207D10E
:103120000C23FB189A781023FB185B789A4202D084
:1031300001235B4200E000231800BD4609B090BDAA
:10314000094500000D3D00004D3D0000D53900004F
:10315000953700000000C842AD0D0000010E0000D0
:1031600090B589B000AF786039607B681B687B617F
:103170000C23FB18032200211800684B98470C23EE
:10318000FB1803221A703B681B685A681E23FC1840
:10319000634B101C9847030023803B681B685B68E7
:1031A000BB611E23FB1800229B5E002B17DA0C2349
:1031B000FB185B7810221343DAB20C23FB185A7009
:1031C0001E23FB181B885B429AB21E23FB181A8031
:1031D0003B681B681B68802212065340BB611E239C
:1031E000FB1800229B5E1B111BB2DAB20C23FB18EA
:1031F0005A701E23FB181B88DBB21B01DAB20C23AA
:10320000FB189A70464BB86998470200454B10006E
:103210009847021C444B111CB8699847031C1A1CA0
:10322000424B4349101C9847031C1A1C1E23FC18D0
:103230003B4B101C9847030023801E23FB180022E1
:103240009B5E562B0FDC1E23FB1800229B5E3E2B41
:1032500009DD0C23FB189B780C221343DAB20C23F4
:10326000FB189A702AE01E23FB1800229B5E3D2B60
:103270000FDC1E23FB1800229B5E302B09DD0C2384
:10328000FB189B7808221343DAB20C23FB189A70C0
:1032900014E01E23FB1800229B5E2F2B0EDC1E2346
:1032A000FB1800229B5E0D2B08DD0C23FB189B787E
:1032B00004221343DAB20C23FB189A707B6914338F
:1032C0000C22B918032218001A4B98477B69143353
:1032D0000C22B91801221800164B98477B69143349
:1032E0001022B91802221800134B98470C23FB1820
:1032F0005A781023FB181B789A4207D10C23FB182D
:103300009A781023FB185B789A4202D001235B4223
:1033100000E000231800BD4609B090BD094500003B
:103320000D3D00004D3D0000D539000095370000EF
:103330000000C842AD0D0000010E000090B589B03C
:1033400000AF786039607B681B687B610C23FB18D9
:10335000032200211800684B98470C23FB18032216
:103360001A703B681B689A681E23FC18634B101C7C
:103370009847030023803B681B689B68BB611E2342
:10338000FB1800229B5E002B17DA0C23FB185B78DE
:1033900010221343DAB20C23FB185A701E23FB18B9
:1033A0001B885B429AB21E23FB181A803B681B687D
:1033B0001B68802212065340BB611E23FB180022AB
:1033C0009B5E1B111BB2DAB20C23FB185A701E2332
:1033D000FB181B88DBB21B01DAB20C23FB189A70B6
:1033E000464BB86998470200454B10009847021CAD
:1033F000444B111CB8699847031C1A1C424B4349A3
:10340000101C9847031C1A1C1E23FC183B4B101C55
:103410009847030023801E23FB1800229B5E562B37
:103420000FDC1E23FB1800229B5E3E2B09DD0C23C4
:10343000FB189B780C221343DAB20C23FB189A700A
:103440002AE01E23FB1800229B5E3D2B0FDC1E236F
:10345000FB1800229B5E302B09DD0C23FB189B78A8
:1034600008221343DAB20C23FB189A7014E01E23CF
:10347000FB1800229B5E2F2B0EDC1E23FB18002264
:103480009B5E0D2B08DD0C23FB189B780422134355
:10349000DAB20C23FB189A707B6914330C22B9182A
:1034A000032218001A4B98477B6914330C22B91871
:1034B00001221800164B98477B6914331022B91863
:1034C00002221800134B98470C23FB185A7810233C
:1034D000FB181B789A4207D10C23FB189A7810230B
:1034E000FB185B789A4202D001235B4200E0002384
:1034F0001800BD4609B090BD094500000D3D000013
:103500004D3D0000D5390000953700000000C8424D
:10351000AD0D0000010E000080B586B000AF7860F0
:1035200039607B681B687B610C23FB180322002138
:1035300018001E4B98470C23FB1808221A703B6892
:103540001B689A7B0C23FB189A707B6914330C223E
:10355000B91803221800164B98477B6914330C22C4
:10356000B91801221800124B98477B6914330C22BA
:10357000B918022218000F4B98470C23FB185A78F1
:103580001023FB181B789A4207D10C23FB189A785A
:103590001023FB185B789A4202D001235B4200E0C3
:1035A00000231800BD4606B080BDC0460945000096
:1035B000AD0D0000010E000080B584B000AFF860D2
:1035C000B9607A60FB68BA681A60FB687A685A600A
:1035D000FB681800BD4604B080BD80B582B000AF66
:1035E00078607B685B681B687A6810009847031CEA
:1035F000181CBD4602B080BD80B50C4FBD4400AF65
:103600000B4B1B6818000B4B9847031C8122920040
:10361000BA181360FA239B001800074B9847C0465E
:10362000BD4682239B009D4480BDC046F8FDFFFF40
:10363000A4010020DB350000E50B000080B500AFE1
:10364000084B1800084B98470649084B02221800FF
:10365000074B98470200074B1A60074B9847C04634
:10366000BD4680BDE80000204D0D00009400002004
:103670000D2C0000A4010020F935000000224308B1
:103680008B4274D303098B425FD3030A8B4244D32A
:10369000030B8B4228D3030C8B420DD3FF2209026C
:1036A00012BA030C8B4202D31212090265D0030B2B
:1036B0008B4219D300E0090AC30B8B4201D3CB0321
:1036C000C01A5241830B8B4201D38B03C01A524163
:1036D000430B8B4201D34B03C01A5241030B8B4265
:1036E00001D30B03C01A5241C30A8B4201D3CB0250
:1036F000C01A5241830A8B4201D38B02C01A524135
:10370000430A8B4201D34B02C01A5241030A8B4237
:1037100001D30B02C01A5241CDD2C3098B4201D34F
:10372000CB01C01A524183098B4201D38B01C01ACD
:10373000524143098B4201D34B01C01A5241030944
:103740008B4201D30B01C01A5241C3088B4201D3F3
:10375000CB00C01A524183088B4201D38B00C01AA0
:10376000524143088B4201D34B00C01A5241411AC7
:1037700000D20146524110467047FFE701B50020D4
:1037800000F006F802BDC0460029F7D076E7704782
:103790007047C046F8B557464E464546DE46E0B54A
:1037A0004702460088467F0A360EC40F002E47D0D7
:1037B000FF2E24D0FB008027FF041F4300239946DF
:1037C0009A467F3E43465D025800DB0F6D0A000EAD
:1037D000984643D0FF283BD0EB0080250022ED0423
:1037E0001D437F383618731C41469B464B4661404B
:1037F00013430F2B64D875489B00C3589F46002F76
:1038000042D108239946063BFF269A46DAE741460D
:10381000022A28D0032A00D1CEE0012A00D0ACE051
:10382000114000200022CCB24002D205400AE40739
:10383000104320433CBC90469946A246AB46F8BD97
:10384000002F15D104239946033B00269A46B9E779
:10385000FF200222002DC5D00322C3E7002D19D17D
:1038600000200122BEE70124FF220C400020DBE7FC
:10387000380000F007FE7626431F9F400023764263
:10388000361A99469A469DE70C239946093BFF262E
:103890009A4697E7280000F0F5FD431F9D407623E8
:1038A0005B42181A00229DE780200024C003FF22FB
:1038B000BAE73D005246ABE73D0021005246A7E77C
:1038C0003B0C9C462A04120C2B0C140060466546E7
:1038D0003F043F0C7C4342435D437B43270C9B18D2
:1038E000FF18BA4203D980235B029C466544240436
:1038F0003A04240C121993015C1EA3413F0C920E52
:103900007D191A43AD0115432B0104D501235E46F1
:103910006A081D40154332007F32002A25DD6B07FF
:1039200004D00F232B40042B00D004352B0103D5EA
:103930003200274B80321D40FE2A94DC0124A8016E
:10394000400AD2B20C406FE78020C003074207D084
:10395000054205D128434002400A4446FF2263E75E
:1039600038434002400AFF225EE70124A31A1B2BC2
:1039700005DD0C400022002056E75E46CBE72A001A
:103980002020DA40C31A9D402B005D1EAB4113433B
:103990005A0704D00F221A40042A00D004335A01D7
:1039A00004D5012401220C4000203DE701249B01A5
:1039B000580A0C40002237E780200124C003284326
:1039C0004002400A0C40FF222EE7C0466846000035
:1039D000FFFFFFF7F0B54F46D64646464400C0B558
:1039E000C20F47024802400A844666467B0A4800E6
:1039F000C90F9A46240E1500DB00000E8946F6001A
:103A0000FF2800D18FE001214F464F4039009142FD
:103A100066D0221A002A00DC9DE000283DD1002E4D
:103A200000D18BE0511E002900D0B5E001249B1B82
:103A30005A0144D59B019F09380000F023FD053849
:103A40008740844200DD96E0041B3A0020200134C8
:103A5000E240041BA7403B005F1EBB410024134310
:103A60005A0704D00F221A40042A00D004335A0106
:103A700027D50134FF2C00D179E001229B015B0A9C
:103A8000E4B22A405B02E405580AD20720431043FF
:103A90001CBC90469946A246F0BDFF2CE0D0802188
:103AA000C9040E431B2A7BDC31002020D140821A3E
:103AB0009640721E96410E439B1B5A01BAD45A0778
:103AC000D0D10122DF082A40FF2C33D1002F00D1B2
:103AD000A8E08023DB033B435B025B0AFF24D1E7C2
:103AE000211A00294CDD00282AD0FF2CB8D08020D4
:103AF000C00406431B2900DDAFE030002027C8408A
:103B0000791A8E40711E8E4106439B195901D6D5F4
:103B10000134FF2C00D185E001227A491A405B086C
:103B20000B4013439CE7002E00D070E76BE73B1E71
:103B3000C5D100227B025B0AE4B2A3E714008FE741
:103B4000002E4DD0481E002857D19B1901245A0140
:103B5000B5D50224E0E7002A25D1621CD2B2012AA1
:103B600072DD9F1B7A0135D5F71A0D0064E701223B
:103B700000232A4086E73B00634A241A13406FE77C
:103B800000296CD1611CC8B201284EDDFF2949D043
:103B90009B195B080C0063E7FF2A41D00A0081E70C
:103BA00001269B1B89E7002C1CD0FF2821D08024F4
:103BB000E404524223431B2A00DD96E01C0020252A
:103BC000D440AA1A93405A1E93412343F31A040087
:103BD0000D002DE7002F00D02EE700220024A9E7DA
:103BE0000C003DE7002B58D0D243002AEED0FF282E
:103BF000E1D13300FF240D0032E7FF2910D001008E
:103C000078E7002B6ED0FF24002E00D128E7802219
:103C10005146D203114203D06146114200D1330014
:103C2000FF241DE7FF2400232CE7002CE9D1002B03
:103C300063D0002E00D113E79B195A0100D43EE750
:103C4000314A0C0013400BE7002C1ED1002B2FD162
:103C5000002E4FD033000D0002E7012655E7002C5F
:103C60001FD1002B43D0C94300290BD0FF2839D0E6
:103C70001B2944DC1C002027CC40791A8B40591E9C
:103C80008B4123439B19040040E7002B1AD1002EDF
:103C900024D180270022FF031BE7330004000D001E
:103CA000DEE6FF281ED08024E40449422343DFE7F8
:103CB000002E00D1D4E69F1B7A0100D437E7F31A17
:103CC0000D00CDE6FF24002E00D1C9E6802250462B
:103CD000D2031042A4D060461042A1D133000D009F
:103CE000FF24BDE63300FF24BAE601236EE733006C
:103CF0000400B5E6002700221CE73300B0E60123EC
:103D0000C0E7C046FFFFFF7DFFFFFFFB410243000E
:103D1000C20F490A1B0E00207E2B0DDD9D2B0CDCF3
:103D2000802000040143952B0ADC9620C31AD94059
:103D30004842002A00D108007047034BD018FBE727
:103D4000963B9940F4E7C046FFFFFF7F70B500281F
:103D500030D0C317C4185C40C50F200000F092FBA0
:103D60009E231B1A962B0DDC9622D21A94402A0011
:103D70006402640ADBB26402DB05600AD2071843FE
:103D8000104370BD992B19DC9922D21A002A29DD23
:103D900094402200144C1440510704D00F210A40D3
:103DA000042A00D00434620113D4A401640ADBB2F3
:103DB0002A00E0E7002200230024DCE7052221009E
:103DC000121AD140B922D21A9440621E94410C4377
:103DD000DAE7054B2A001C409F23A4011B1A640A42
:103DE000DBB2C8E72200D5E7FFFFFFFBF0B557467F
:103DF0004546DE464E46E0B50C0398464E00230B82
:103E000087B0070092469B46760DCD0F002E6BD0F3
:103E10006D4B9E4235D080245B46420F2404DB006C
:103E200014431C43C3009946684BA3469C46002399
:103E300000276644029343461C035A00DB0F50469A
:103E4000240B520D984600D176E05F4B9A426DD01C
:103E50008023410F1B040B435C49E4008C461C4348
:103E6000C300002062444146B6186940721C0191AB
:103E7000944607430F2F00D9B0E0554ABF00D259EE
:103E800097465B460343994600D087E000239B4654
:103E9000023308270293CEE742460192022867D0F8
:103EA000032800D10EE2012800D062E100230024A3
:103EB0000022994601990140CDB2002112030B0D59
:103EC000120B1B051343434A240513401C43640093
:103ED000ED0764082C434846210007B03CBC9046DF
:103EE0009946A246AB46F0BD034399464FD05B4688
:103EF000002B00D189E1584600F0C4FA03000B3BC7
:103F00001C2B00DD7AE11D22D31A3A0001005C4629
:103F1000DA4008398C4013008F4023439B46B94652
:103F200000232D4E0027361A029384E7534623437D
:103F30002AD10024022096E75346234320D0002CA8
:103F400000D157E1200000F09DFA03000B3B1C2B31
:103F500000DD49E11D21CB1A51460200D9405346EC
:103F6000083A944093400C431B4A121A00207AE707
:103F70000125019B144C1D400023002299469CE71B
:103F80000024002201206EE7534603206BE7002344
:103F90009B4601330427002602934CE70323814606
:103FA0000C27029347E7802200230025120399463D
:103FB000054C82E75C464B4602986FE75C464B46F1
:103FC000019502986AE7C046FF07000001FCFFFF69
:103FD000A8460000FFFF0F800DFCFFFF4A46494640
:103FE000170C1A0C1B041B0C08041900000C41438D
:103FF0001500884619007D437943039589462900B9
:10400000150045434D44029545462D0CAA46029D98
:104010005544A94506D98A46802149028946CA44A1
:1040200051460391290C0491414609042D04090CC1
:1040300088462900250C24044144240C05912100C4
:1040400041438846210079438A46684341465044AB
:104050008146080C48446F43824503D980214902B8
:1040600089464F44010C8946390049440291414632
:104070000F0404993F0C88460004C019804441464F
:10408000049159460F0C0904090C884659438A4685
:1040900039005143894641464A435146090C8B46F3
:1040A0007B43D2185A44934203D980235B029B4638
:1040B000D94451460904090C8A46414661437C4370
:1040C000130C12044B445244A1468A463C0041461C
:1040D0006C434D4351464D440F0C7D19A94503D9FE
:1040E0008021490288464444049F0399B8464144CC
:1040F0008B468345804141428846514608042F043F
:10410000000C3F1858460299101889469042924177
:104110004F44BA46524299469346C244D144CB4496
:104120008F42BF41C245894199459B419345924188
:104130007F4249422D0C52420F435B4213437F1989
:10414000FF185B463C19DB0D059A64021C434302D1
:1041500013435D1EAB415A46C00D03435202134345
:10416000E20156D501205A0803401343E2071343E6
:1041700064085A48604400284DDD5A0709D00F22D0
:104180001A40042A05D01A1D9A429B415B42E4184A
:104190001300E20104D58020514AC000144060445D
:1041A000504A904200DDE3E60125DB0862071A432E
:1041B0006402019B9146220B4405640D1D407CE680
:1041C000802259461203114208D0144206D12243DC
:1041D0001203120B45469946434C6EE65B461A4362
:1041E0001203120B404C68E603005446283B9C40E7
:1041F0000023B9E600F046F92030A6E60300283B8C
:104200009F400023BB4699468AE600F03BF92030E8
:1042100074E6B446ADE701252A1A382A06DD019B6B
:1042200000241D4000230022994646E61F2A21DC77
:1042300020252000AD1A1E00AB40A840D6405D1ED0
:10424000AB4130431843D440430709D00F23034008
:10425000042B05D00300181D98429B415B42E418D3
:10426000230221D50125019B01241D4000230022AA
:10427000994622E61F2521006D42281AC1400800F8
:10428000202A1DD05F35AA1A944023435C1EA34107
:10429000072503431D400022002D09D00F220024D2
:1042A0001A401800042AD6D1030065076402220BC5
:1042B000DB082B4301259946019B00241D40FCE5AA
:1042C0000024E2E780220125120322430199120310
:1042D000120B0D409946044CEFE5C046FF03000069
:1042E000FFFFFFFEFE070000FF07000070B500287B
:1042F00030D0C317C4185C40C50F200000F0C2F8CE
:10430000174B184A1B1AD21A1F2A18DD164AD21A3E
:104310009440002224035B05240B5B0D0021100058
:1043200024030A0D240B12052243104C1B052240C6
:1043300013435B00ED075B082B43190070BD2100A0
:1043400091400A000B21081AC4405B052403240B8A
:104350005B0DE3E70025002300240022DEE7C046D2
:104360001E0400003304000013040000FFFF0F8050
:10437000F0B54C00640D0B03621C450F5B0A52053F
:104380002B43C90FC500520D012A28DD3A4AA61851
:10439000FE2E1BDC002E3EDD80010200501E8241FD
:1043A0006D0F2A43DB0013435A0704D00F221A4033
:1043B000042A00D004338022D2041A405AD0013695
:1043C000FF2E03D09B015B0AF4B201E0FF2400231F
:1043D0005802E405400AC90720430843F0BD002CF9
:1043E00007D01D43F2D08020DB0080040343FF266A
:1043F000DAE72B4303D00523DB08FF2C03D05B0255
:104400005B0AE4B2E4E7002B32D08020C003034310
:104410005B025B0ADCE73200173214DB80221E27C6
:1044200012041343BF1B1F2F0FDC144A944664442D
:104430002A00A5402E00A340751EAE41FA4033432A
:1044400013430026B0E70024D5E702225242961B10
:104450001A00F240202F09D0094884466444A34042
:104460002B435D1EAB41002613439DE70023F7E776
:104470000023ADE73400BFE780FCFFFF82FCFFFFB5
:10448000A2FCFFFF1C2101231B04984201D3000C56
:1044900010391B0A984201D3000A08391B099842B7
:1044A00001D30009043902A2105C40187047C046CD
:1044B00004030202010101010000000000000000ED
:1044C00070B500260C4D0D4C641BA410A64209D1FA
:1044D000002600F009F90A4D0A4C641BA410A642FC
:1044E00005D170BDB300EB5898470136EEE7B30035
:1044F000EB5898470136F2E7F4460000F446000016
:10450000F4460000F846000003008218934200D1F0
:10451000704719700133F9E72E2E2F68706C2F70D9
:104520006F72742F68706C5F6770696F5F62617320
:10453000652E68002E2E2F68616C2F696E636C7576
:1045400064652F68616C5F7764742E6800000000FA
:104550002E2E2F68616C2F7372632F68616C5F69F8
:1045600032635F6D5F73796E632E63002E2E2F684A
:10457000616C2F7372632F68616C5F696F2E6300CB
:104580002E2E2F68616C2F7574696C732F73726394
:104590002F7574696C735F6576656E742E630000A9
:1045A0002E2E2F68616C2F7574696C732F73726374
:1045B0002F7574696C735F6C6973742E63000000EF
:1045C0002E2E2F68706C2F636F72652F68706C5F72
:1045D000636F72655F6D30706C75735F6261736578
:1045E0002E630000E2100000C01000009E100000CA
:1045F0007C1000005A100000CE110000AC11000029
:10460000981100007A110000621100002E2E2F6810
:10461000706C2F736572636F6D2F68706C5F73655C
:1046200072636F6D2E630000000000000000000048
:104630000000000000000000000000002E2E2F737C
:104640006C6565705F6D616E616765722F736C6517
:1046500065705F6D616E616765722E6300000000BA
:10466000552C0000212D0000C0380000103800003B
:10467000103800000E380000B2380000B2380000D8
:10468000A83800000E380000B2380000A83800003A
:10469000B23800000E380000B8380000B83800000A
:1046A000B838000048390000DC3F00009C3E0000A4
:1046B0009C3E0000983E0000B43F0000B43F000064
:1046C000A63F0000983E0000B43F0000A63F000057
:1046D000B43F0000983E0000BC3F0000BC3F00001B
:1046E000BC3F0000C0410000F8B5C046F8BC08BCA3
:1046F0009E467047DD000000F8B5C046F8BC08BC17
:084700009E467047B500000061
:104708000000000004001040000003002BF6000029
:10471800000000000200000014002000000100005A
:104728000E0F00000000D70000093D000100000046
:0C4738001000200000050000C20100007D
:00000001FF
