S0170000536174437562655F53414D4C3231452E7372656332
S1130000D021002031010000C5010000C50100001D
S113001000000000000000000000000000000000DC
S1130020000000000000000000000000C501000006
S11300300000000000000000C5010000C501000030
S1130040C5010000C5010000812D0000C5010000AC
S1130050C5010000C5010000C5010000C501000084
S11300606D47000089470000C5010000C50100007C
S1130070C5010000C5010000C5010000C501000064
S1130080C5010000C14E0000C501000000000000D1
S113009000000000C5010000C5010000C50100000A
S11300A0C5010000C5010000C5010000C501000034
S11300B00000000010B5064C2378002B07D1054B37
S11300C0002B02D0044800E000BF0123237010BDC0
S11300D05000002000000000CC700000084B10B558
S11300E0002B03D00749084800E000BF0748036815
S11300F0002B00D110BD064B002BFBD09847F9E72D
S11301000000000054000020CC700000CC700000FF
S11301100000000080B500AF034B9847034B98479D
S1130120C046BD4680BDC046150D000065540000A4
S113013080B582B000AF194B7B60194B3B607A6885
S11301403B689A420CD007E03B681A1D3A607A6813
S1130150111D796012681A603A68124B9A42F3D3FF
S1130160114B3B6004E03B681A1D3A6000221A60A0
S11301703A680E4B9A42F6D30D4B7B600D4B7A686E
S1130180FF218A439A600C4A536880210B435360D1
S11301900A4B98470A4B9847FEE7C046CC700000CC
S11301A0000000205000002050000020CC0100205E
S11301B00000000000ED00E000400041DD6C0000A4
S11301C08D52000080B500AFFEE780B584B000AF6B
S11301D0F8607A600B23FB180A1C1A700B23FB18B7
S11301E01A78FB68203292007968D150C046BD4627
S11301F004B080BD80B582B000AF78607B685B6975
S113020080221A437B685A61C046BD4602B080BD55
S113021080B582B000AF78607B685B698022520051
S11302201A437B685A61C046BD4602B080BD80B5A2
S113023082B000AF78607B68DB6901221A437B6877
S1130240DA61C046BD4602B080BD80B582B000AF61
S113025078607B68DB6902221A437B68DA61C046F6
S1130260BD4602B080BD80B582B000AF78607B68C7
S1130270DB6904221A437B68DA61C046BD4602B0DA
S113028080BD80B582B000AF78607B68DB69802276
S113029052001A437B68DA61C046BD4602B080BD95
S11302A080B584B000AFF8607A600B23FB180A1C99
S11302B01A700B23FB181B78FA68DB01D318083378
S11302C07A681A60C046BD4604B080BD80B584B06B
S11302D000AFF8607A600B23FB180A1C1A700B231A
S11302E0FB181B78FA68DB01D31804337A681A60A8
S11302F0C046BD4604B080BD80B584B000AFF86090
S11303007A600B23FB180A1C1A700B23FB181B784A
S1130310FA68DB01D31818337A681A60C046BD4600
S113032004B080BD80B584B000AFF8607A600B2360
S1130330FB180A1C1A700B23FB181B78FA68DB01E4
S1130340D31814337A681A60C046BD4604B080BD21
S113035090B585B000AF78600C0010001900FB1C4C
S1130360221C1A70BB1C021C1A707B1C0A1C1A70FB
S1130370FB1C1978BB1C1A780F23FB1878683024EF
S1130380C90141188A18121912781A700F23FB1820
S11303900F22BA1812780F218A431A707B1C1B781B
S11303A00F221340D9B20F23FB180F22BA18127868
S11303B00A431A70FB1C1A78BB1C1B78796830201E
S11303C0D2018A18D3181B180F22BA1812781A707F
S11303D0C046BD4605B090BD90B585B000AF78600D
S11303E00C0010001900FB1C221C1A70BB1C021C00
S11303F01A707B1C0A1C1A70FB1C1978BB1C1A7817
S11304000F23FB1878683024C90141188A1812197F
S113041012781A700F23FB180F22BA1812780F21C2
S11304200A401A707B1C1B781B01D9B20F23FB18DE
S11304300F22BA1812780A431A70FB1C1A78BB1CD4
S11304401B7879683020D2018A18D3181B180F2220
S1130450BA1812781A70C046BD4605B090BD90B562
S113046085B000AF78600C0010001900FB1C221C42
S11304701A70BB1C021C1A707B1C0A1C1A70FB1C11
S11304801978BB1C1A780F23FB1878684024C9011B
S113049041188A18121912781A700F23FB180F22A8
S11304A0BA18127801218A431A707B1C19780F2319
S11304B0FB180F22BA1812780A431A70FB1C1A7818
S11304C0BB1C1B7879684020D2018A18D3181B18EA
S11304D00F22BA1812781A70C046BD4605B090BDF6
S11304E0B0B582B000AF786008001100FB1C021C9C
S11304F01A70BB1C0A1C1A70FB1C1A78BB1C1B78D4
S1130500F91C0878B91C09787C684025C0012018BA
S1130510411849190978C9B204200143CCB2796859
S11305204020D2018A18D3181B18221C1A70C04606
S1130530BD4602B0B0BDB0B582B000AF786008006F
S11305401100FB1C021C1A70BB1C0A1C1A70FB1C39
S11305501A78BB1C1B78F91C0878B91C09787C68CC
S11305604025C0012018411849190978C9B204204E
S11305708143CCB279684020D2018A18D3181B1861
S1130580221C1A70C046BD4602B0B0BD80B584B00E
S113059000AFF8607A600B23FB180A1C1A700B2357
S11305A0FB181B78FA68DB01D31828337A681A60C1
S11305B0C046BD4604B080BD80B582B000AF39608E
S11305C01100FB1D021C1A70BB1D0A1C1A70BB1DF6
S11305D01B78012B23D0022B3FD0002B5DD13A682E
S11305E0FB1D1978C023DB051800314B98473B6885
S11305F01B041B0C8022D2051A43FB1D1B782D48BB
S113060019002D4B98473B681B0CC02212061A4355
S1130610FB1D1B7827481900274B984743E03A688D
S1130620FB1D1978C023DB051800214B98473B6854
S11306301B041B0C214A1A43FB1D1B781D4819007F
S11306401D4B98473B681B0C1D4A1A43FB1D1B7826
S113065018481900184B984725E03A68FB1D19788B
S1130660C023DB051800174B98473B681B041B0C81
S11306708022D2051A43FB1D1B780E4819000E4B2D
S113068098473B681B0CC02212061A43FB1D1B78BB
S113069008481900084B984705E00B4B46221900FF
S11306A000200A4B9847C046BD4602B080BDC046F4
S11306B0CD020000002800408D050000000002402B
S11306C0000002C0A1020000346D00007720000089
S11306D080B582B000AF39601100FB1D021C1A7096
S11306E0BB1D0A1C1A70BB1D1B78002B08D03A686E
S11306F0FB1D1978C023DB051800074B984707E05A
S11307003A68FB1D1978C023DB051800034B984792
S1130710C046BD4602B080BDF902000025030000BA
S113072090B583B000AF040008001100FB1D221C2B
S11307301A70BB1D021C1A707B1D0A1C1A707B1DCB
S11307401B78012B0CD0022B29D0002B46D1BB1DCA
S11307501A78FB1D1B7827481900274B984744E05B
S1130760BB1D1B7801229A40FB1D1978C023DB05B1
S11307701800224B9847BB1D1A78FB1D1B781D4897
S113078019001F4B9847BB1D1B7801229A40FB1D83
S11307901978C023DB0518001A4B984725E0BB1DC8
S11307A01B7801229A40FB1D1978C023DB05180031
S11307B0124B9847BB1D1A78FB1D1B780D48190076
S11307C00F4B9847BB1D1B7801229A40FB1D1978DB
S11307D0C023DB0518000C4B984706E00B4B89221D
S11307E0190000200A4B9847C046C046BD4603B0D6
S11307F090BDC0460028004037050000CD0200002F
S1130800E1040000F902000025030000346D00003B
S11308107720000090B585B000AF786039607B68C0
S11308205A090F23FB181A707B68DAB20E23FB18DF
S11308301F210A401A703B6801330AD10E23FB18AA
S11308401A780F23FB1819781B4800231B4CA04768
S11308502EE00E23FB181A780F23FB18197816487C
S11308600123164CA0470E23FB181B7801221340CA
S11308700FD00E23FB181B785B08DAB23B68D8B2A2
S11308800F23FB1819780C4C030020000C4CA047D4
S11308900EE00E23FB181B785B08DAB23B68D8B273
S11308A00F23FB181978044C03002000054CA047C3
S11308B0C046BD4605B090BD002800405F0400005E
S11308C0D90300005103000080B582B000AF0200DC
S11308D0FB1D1A70BB1D0A1C1A70FB1D1B785B09DB
S11308E0D8B2FB1D1B781F221340D9B2BB1D1B7845
S11308F01A00034B9847C046BD4602B080BDC046AF
S11309002107000080B582B000AF786039603A6892
S11309107B6811001800034B9847C046BD4602B0DF
S113092080BDC0461508000080B582B000AF02004B
S1130930FB1D1A70BB1D0A1C1A70FB1D1B785B097A
S1130940D8B2FB1D1B781F22134001229A401100CC
S1130950BB1D1B781A00034B9847C046BD4602B026
S113096080BDC046B905000080B582B000AF02006A
S1130970FB1D1A70BB1D0A1C1A70FB1D1B785B093A
S1130980D8B2FB1D1B781F22134001229A4011008C
S1130990BB1D1B781A00034B9847C046BD4602B0E6
S11309A080BDC046D106000080B500AF024B984719
S11309B0C046BD4680BDC0467526000080B582B0E5
S11309C000AF786039607B68002B04D03B68002B53
S11309D001D0012300E000231A1C01231340DBB2E1
S11309E0084948221800084B98477B683A681A60FF
S11309F07B681800054B984703001800BD4602B0F9
S1130A0080BDC046506D00007720000021510000D9
S1130A1080B500AF034B1800034B9847C046BD4652
S1130A2080BDC046000400401102000080B500AF44
S1130A30054B9847054A064B11001800054B98478B
S1130A40C046BD4680BDC046110A000000200040DB
S1130A502C010020CD14000080B500AF094B4022CA
S1130A6012211800084B9847064B43221121180005
S1130A70054B9847054B1800054B9847C046BD46A3
S1130A8080BDC04600180040CB01000000040040B7
S1130A902F02000080B500AF064B19000420064B5E
S1130AA09847064B19000520034B9847C046BD469E
S1130AB080BDC046030004000509000003000500D2
S1130AC090B583B002AF084B9847084A8423D905F0
S1130AD00748002300931023064CA047064B984771
S1130AE0C046BD4601B090BD590A00006C0000200C
S1130AF0480100202D1D0000950A000080B500AFBC
S1130B0000211020094B9847094B19001020094B6C
S1130B10984700211120054B9847074B19001120D5
S1130B20044B9847C046BD4680BDC046C908000076
S1130B3002001000050900000200110080B500AF9A
S1130B40094B402213211800084B9847064B4322B7
S1130B5011211800054B9847054B1800054B984781
S1130B60C046BD4680BDC04600180040CB01000011
S1130B70000400404B020000B0B500AF064B98479C
S1130B80064A074907481023074CA047074B9847D4
S1130B90C046BD46B0BDC0463D0B000098010020D4
S1130BA000040042C00000202D170000FD0A0000D0
S1130BB080B500AF00210820094B9847094B190064
S1130BC00820094B984700210920054B9847074BFB
S1130BD019000920044B9847C046BD4680BDC04655
S1130BE0C90800000300080005090000030009000B
S1130BF080B500AF094B402214211800084B9847D8
S1130C00064B432211211800054B9847054B180049
S1130C10054B9847C046BD4680BDC04600180040FD
S1130C20CB010000000400406702000080B500AF63
S1130C30064B9847064A074B11001800064B984785
S1130C40064B9847C046BD4680BDC046F10B000028
S1130C50000800420C0100206D160000B10B0000DA
S1130C6080B500AF034B1800034B9847C046BD4600
S1130C7080BDC04610E000E03D15000080B500AF27
S1130C800A4B18000A4B98470A4B40221B211800B4
S1130C90094B9847094B984702000949094B18002A
S1130CA0094B9847C046BD4680BDC046000400407D
S1130CB08302000000180040CB010000794E0000C0
S1130CC000200042A8010020411B000080B500AFB5
S1130CD0034B1800034B9847C046BD4680BDC04631
S1130CE000040040F501000080B500AF054B9847B3
S1130CF0054A064B11001800054B9847C046BD46EF
S1130D0080BDC046CD0C0000001C0040080100203E
S1130D10BD09000080B500AF724B98470021022046
S1130D20714B984702210220704B984701235B4284
S1130D30190002206E4B9847002103206A4B984704
S1130D4002210320694B984701235B4219000320C9
S1130D50674B984700210620634B984702210620E1
S1130D60624B984701235B4219000620604B984769
S1130D70012107205D4B9847002107205D4B9847D0
S1130D8001235B4219000720594B984701210A208F
S1130D90564B984700210A20564B984701235B4243
S1130DA019000A20524B984701210B204F4B9847BA
S1130DB000210B204F4B984701235B4219000B2065
S1130DC04B4B984700210E20474B984702210E2099
S1130DD0464B984701235B4219000E20444B984729
S1130DE000210F20404B984702210F203F4B98478A
S1130DF001235B4219000F203D4B9847012112202B
S1130E003A4B9847002112203A4B984701235B4202
S1130E1019001220364B984701211320334B984771
S1130E2000211320334B984701235B421900132000
S1130E302F4B9847012116202C4B98470021162050
S1130E402C4B984701235B4219001620284B9847E6
S1130E5000211720244B984702211720234B984741
S1130E6001235B4219001720214B984700211820C9
S1130E701D4B9847022118201C4B984701235B42C5
S1130E80190018201A4B984700211920164B98472F
S1130E9002211920154B984701235B4219001920A0
S1130EA0134B984700211B200F4B984702211B200E
S1130EB00E4B984701235B4219001B200C4B9847AB
S1130EC00D4B98470D4B98470D4B98470D4B984742
S1130ED00D4B98470D4B98470D4B9847C046BD4660
S1130EE080BDC046A9090000690900002909000065
S1130EF005090000C90800002D0A0000C10A00000D
S1130F00790B00002D0C0000610C00007D0C00002A
S1130F10E90C000080B584B000AF7860EFF3108373
S1130F20FB60FA687B681A6072B6BFF35F8FC046D5
S1130F30BD4604B080BD80B584B000AF7860BFF317
S1130F405F8F7B681B68FB60FB6883F31088C04677
S1130F50BD4604B080BD80B582B000AF0200BB1DA9
S1130F601A80BB1D1B880322134001D0002300E01C
S1130F7001231800BD4602B080BD000080B584B0D6
S1130F8000AF78600A00FB1C1A700023FB607B68CA
S1130F909BB21800174B9847031E11D0FB1C1B78FB
S1130FA00C2B1FD89A00144BD3181B689F46134B65
S1130FB0FB601AE0124BFB6017E0124BFB6014E07D
S1130FC0FB1C1B780C2B0FD89A000F4BD3181B68F3
S1130FD09F460A4BFB6008E00C4BFB6005E0094BA5
S1130FE0FB6002E0C04600E0C046FB681800BD4656
S1130FF004B080BD570F00006C6D000080DE280037
S1131000803B2600008D2700A06D000000EA24002C
S113101080B58AB000AFF860B9607A60FB685B693C
S11310203B621F23FB1801221A701E23FB180122A6
S11310301A701D23FB1800221A701C23FB180022AF
S11310401A70BB687B623B6A9BB218003F4B98479F
S1131050031E01D03E4B00E03E4BBB617A6ABB6984
S11310609A4207D37A6ABB69D31A7B623B6A01331B
S11310703B62E8E71F23FB181A783B6A110018004B
S1131080354B984703007B617A6A7B699A420BD39C
S11310907A6A7B69D31A7B621F23FB181A781F2391
S11310A0FB1801321A70E5E77B6A2C4A93420CD98B
S11310B07B6A2B4A944663447B621E23FB181A788E
S11310C01E23FB1801321A70EEE77B6A254A93420D
S11310D00CD97B6A244A944663447B621D23FB1823
S11310E01A781D23FB1801321A70EEE77B6A3B2B3A
S11310F00AD97B6A3C3B7B621C23FB181A781C23AD
S1131100FB1801321A70F1E7C0463B6A9AB27B6859
S1131110DA807B681F22BA1812785A717B681E2203
S1131120BA1812781A717B681D22BA1812789A704C
S11311307B681C22BA1812785A707B6ADAB27B6810
S11311401A7000231800BD460AB080BD570F000076
S11311500085E2018033E1017D0F00007F51010031
S113116080AEFEFF0F0E0000F0F1FFFF80B586B0E9
S113117000AF7860396000237B6100233B613B68EA
S1131180DB88D9B27B685B69DAB20F23FB188A1A51
S11311901A700E23FB183A6852791A700D23FB1843
S11311A03A6812791A700C23FB183A6892781A700C
S11311B00B23FB183A6852781A700A23FB183A6812
S11311C012781A7000233B6119E07B685B699AB25C
S11311D03B699BB2D3189BB218002D4B9847031E52
S11311E005D07B692B4A944663447B6104E07B69A8
S11311F0294A944663447B613B6901333B610F2375
S1131200FB181A783B699A42DFD801233B610FE04F
S11312103B68DB881A003B69DBB2190010001F4BE6
S1131220984702007B699B187B613B6901333B61F2
S11312300E23FB181A783B699A42E9D80D23FB1850
S11312401B78013B164A53431A007B699B187B6148
S11312500C23FB181B78E122120153431A007B690B
S11312609B187B610B23FB181A7813001B019B1A34
S11312709B001A007B699B187B610A23FB181B786F
S11312807A69D3187B617B691800BD4606B080BDBE
S1131290570F00000085E2018033E1017D0F00005B
S11312A08051010080B586B000AFF860B9607A6003
S11312B07B68DB683B61BB68DB687B61BB681B7C6C
S11312C0052B4AD89A002E4BD3181B689F467A697F
S11312D03B699A4243D87B693C337B613FE07A693E
S11312E03B699A423DD87B69E122120194466344EA
S11312F07B6136E07A693B699A4234D87B69214A3A
S1131300944663447B612EE07A693B699A422CD807
S11313107B685B891A007B685B7A190010001A4BA2
S1131320984702007B699B187B611EE07A693B69E0
S11313309A421CD87B685B891800144B9847031E9B
S113134005D07B69124A944663447B610FE07B6954
S1131350104A944663447B6109E0C04608E0C046F5
S113136006E0C04604E0C04602E0C04600E0C046D5
S1131370BB687A69DA60C046BD4606B080BDC04627
S1131380D46D0000805101007D0F0000570F000054
S11313900085E2018033E10180B58AB000AF786056
S11313A039607B681800444B984703007B6208232C
S11313B0FB181A1D796A7B681800404B984708236C
S11313C0FB187A6ADA603B681B7C062B54D89A00B7
S11313D03B4BD3181B689F460823FB185A893B686C
S11313E05A810823FB185A7A3B685A720823FB185F
S11313F01A7A3B681A720823FB189A793B689A7127
S11314000823FB185A793B685A7136E00823FB1805
S11314105A893B685A810823FB185A7A3B685A72E6
S11314200823FB181A7A3B681A720823FB189A7966
S11314303B689A7121E00823FB185A893B685A815A
S11314400823FB185A7A3B685A720823FB181A7A45
S11314503B681A7211E00823FB185A893B685A81C9
S11314600823FB185A7A3B685A7206E00823FB18D3
S11314705A893B685A8100E0C0463B681A1D7B6864
S1131480110018000F4B984703003B623B683A6A0F
S1131490DA600823FA1839687B6818000A4B984701
S11314A03B68D9683B681A1D7B681800034B984752
S11314B0C046BD460AB080BDE52C000011100000F6
S11314C0EC6D00006D110000A512000080B584B021
S11314D000AF786039600023FB607B685A1E93413B
S11314E0D8B2E0235A00114B1900114B98477B687E
S11314F01A683B689A4201D1002313E07B681B6899
S1131500002B02D012235B420CE07B683A681A601D
S11315107B681800074B98470300FB607B68064A0A
S11315205A61FB681800BD4604B080BD086E000017
S113153077200000312C0000B207000080B582B093
S113154000AF7860054B7A681A60044B1B6818007A
S1131550034B9847C046BD4602B080BD7C000020C6
S1131560C947000090B583B000AF0200BB1D1A80CC
S1131570074B1C68BB1D1B881800064B98470300CB
S113158019002000044B9847C046BD4603B090BDE7
S11315907C00002025260000E547000080B58AB0C5
S11315A000AFF860B960BB1D1A80FB68143B7B6216
S11315B07B6A9A8B1423FB181A80BB1D1A88142388
S11315C0FB185A601423FB180C4A5A801423FB1886
S11315D0BA689A607B6A1422BA1811001800084B82
S11315E0984703003B623B6A002B01D03B6A01E051
S11315F0BB1D1B881800BD460AB080BD0180FFFFDB
S1131600E540000080B58AB000AFF860B960BB1D4A
S11316101A80FB68143B7B627B6A9A8B1423FB1849
S11316201A80BB1D1A881423FB185A601423FB1854
S11316300C4A5A801423FB18BA689A607B6A1422F5
S1131640BA1811001800084B984703003B623B6A24
S1131650002B01D03B6A01E0BB1D1B881800BD466E
S11316600AB080BD0080FFFFE540000080B584B073
S113167000AF786039607B685A1E9341DBB20E4933
S11316805E2218000D4B98477B683A6811001800D9
S11316900B4B98470300FB60FB68002B01D0FB68F1
S11316A006E07B68074A9A617B68074A5A6100230F
S11316B01800BD4604B080BD246E000077200000F1
S11316C0C13E00009D1500000516000080B582B0E3
S11316D000AF78607B681800034B9847030018003C
S11316E0BD4602B080BDC046093F000080B584B04D
S11316F000AFF8607A600A23FB180A1C1A800A23D8
S1131700FB181B889B059B0D1AB27B6819B28023BA
S1131710DB000B401BB213431BB29AB2FB689A83E3
S1131720FB689B8B1800BD4604B080BD80B586B0B5
S113173000AFF860B9607A601A00BB1C1A80FB68BD
S1131740002B0BD0BB68002B08D07B68002B05D086
S1131750BB1C1B88002B01D0012300E000231A1CB2
S113176001231340DBB21E493A2218001D4B98474F
S1131770FB6830331800BB1C1A887B6819001A4BAD
S11317809847031E02D00D235B4224E0FB68BA682D
S113179011001800154B984703007B617B69002BEF
S11317A001D07B6917E0FB68114ADA61FB68114AD2
S11317B09A61FB68104A5A60FB68104A9A60FB6899
S11317C00F4ADA60FB68462200219952FB684422E2
S11317D00021995200231800BD4606B080BDC046C2
S11317E0406E000077200000A52200002544000080
S11317F001190000D1190000D918000005180000D3
S11318009518000080B584B000AF78607B68FB60F9
S1131810FB6844229B5A002B09D1FB685B6A002BAE
S113182032D0FB685B6AFA68100098472CE0FB68CA
S113183046229B5A013399B2FB6846229952FB68AF
S113184046229A5AFB6844215B5A9A420BD0F868A4
S1131850FB681B6CFA684621525A9B181B781900C6
S11318600B4B984710E0FB68462200219952FB6815
S1131870442200219952FB689B6A002B04D0FB6828
S11318809B6AFA6810009847C046BD4604B080BD04
S1131890CD44000080B584B000AF78600A00FB1C22
S11318A01A707B68FB60FB6830331A00FB1C1B78E2
S11318B019001000074B9847FB68DB6A002B04D023
S11318C0FB68DB6AFA6810009847C046BD4604B05E
S11318D080BDC0468D23000080B584B000AF786021
S11318E07B68FB60FB681B6A002B04D0FB681B6AE7
S11318F0FA6810009847C046BD4604B080BD000099
S113190080B588B000AFF860B960BB1D1A801E2393
S1131910FB1800221A80FB68183BBB61FB68002B94
S113192008D0BB68002B05D0BB1D1B88002B01D041
S1131930012300E000231A1C01231340D8B29B2387
S11319405A001D4B19001D4B98471023FB18180013
S11319501B4B9847BB69303318001A4B9847030058
S11319607B611023FB181800174B98470FE0BB69E5
S1131970303318001E23FB181B881E22BA18591C6A
S113198011801A00BB689B181900104B98471E233E
S1131990FB181A887B699A4206D21E23FA18BB1DCB
S11319A012881B889A42E2D31E23FB181B88180056
S11319B0BD4608B080BDC046406E000077200000E0
S11319C0150F000001240000370F00001923000048
S11319D080B586B000AFF860B960BB1D1A80FB68A3
S11319E0183B7B61FB68002B08D0BB68002B05D03B
S11319F0BB1D1B88002B01D0012300E000231A1C0F
S1131A0001231340D8B25223FF331A00124B19009A
S1131A10124B98477B6946229A5A7B6944215B5A48
S1131A209A4202D004235B4211E07B69BA681A64CB
S1131A307B69BA1D442112885A527A697B691B6CEE
S1131A401B7819001000064B9847BB1D1B88180013
S1131A50BD4606B080BDC046406E00007720000041
S1131A60CD44000080B584B000AFF860B960BB1D00
S1131A701A80FB68002B04D0BB68002B01D0012323
S1131A8000E000231A1C01231340DBB2084934226E
S1131A901800084B9847FB681B68BA1D1288B96880
S1131AA0F868984703001800BD4604B080BDC046DE
S1131AB0606E00007720000080B584B000AFF8604D
S1131AC0B960BB1D1A80FB68002B04D0BB68002BD7
S1131AD001D0012300E000231A1C01231340DBB2D0
S1131AE008493D221800084B9847FB685B68BA1DFB
S1131AF01288B968F868984703001800BD4604B016
S1131B0080BDC046606E00007720000080B582B0C2
S1131B1000AF78607B681B681800BD4602B080BDCA
S1131B2080B582B000AF78607B68002B02D07B6800
S1131B301B6800E000231800BD4602B080BD000011
S1131B4080B584B000AFF860B9607A60FB68002BA0
S1131B5004D0BB68002B01D0012300E000231A1C31
S1131B6001231340DBB20B493B2218000A4B984770
S1131B70FB68BA6811001800084B9847FB680022FC
S1131B801A61FB68064A1A6000231800BD4604B0B7
S1131B9080BDC046746E000077200000654B0000D5
S1131BA0691C000080B588B000AFF860B9607A6045
S1131BB00023BB61FB681800274B984703003B6177
S1131BC03B69002B06D1BA68FB6811001800234B4F
S1131BD098473DE03B69FB6124E0FB695A687B68F8
S1131BE09A4208D8FB699A68FB6959687B68CB1AE2
S1131BF0D3187B6109E0FB699A68FB695B68D218BA
S1131C007B685B42D31801337B61BB689A687B694C
S1131C109A420BD9FB69BB61FB691800104B9847CA
S1131C200300FB61FB69002BD7D100E0C046FA69D1
S1131C303B699A4206D1BA68FB6811001800074B49
S1131C40984705E0BA68BB6911001800054B98472E
S1131C50BD4608B080BDC0460D1B0000FD2100003C
S1131C60211B00005522000080B586B000AF7860CB
S1131C707B683B613B6914331800294B9847030088
S1131C807B613B691B695A1C3B691A613B691B698F
S1131C90FB603B691B7EDBB21A000123134006D1B3
S1131CA03B691B7EDBB21A000223134029D03B6937
S1131CB01B7EDBB202221343DAB23B691A762BE0B5
S1131CC07B69BB603B6914331800164B9847BB68AB
S1131CD01B7C012B09D1BB68FA685A603B69143339
S1131CE0FA68B9681800104B98473B691433180018
S1131CF00B4B984703007B61BB68DB68BA68100034
S1131D0098477B69002B07D07B695B68FA68D21A15
S1131D107B699B689A42D3D2BD4606B080BDC0465B
S1131D200D1B000075220000A51B000080B586B0C5
S1131D3000AFF860B9607A601A00BB1C1A80FB68B7
S1131D40002B0BD0BB68002B08D07B68002B05D080
S1131D50BB1C1B88002B01D0012300E000231A1CAC
S1131D6001231340DBB21C493A2218001B4B98474D
S1131D70FB6834331800BB1C1A887B681900184BA5
S1131D809847031E02D00D235B4220E0FB68083312
S1131D90BA6811001800134B984703007B617B69F4
S1131DA0002B01D07B6912E0FB680F4A5A60FB6884
S1131DB00E4A1A60FB680E4A9A60FB680D4ADA60A4
S1131DC0FB680D4A1A61FB680C4A5A61002318002B
S1131DD0BD4606B080BDC0468C6E00007720000072
S1131DE0A522000075360000991E0000011E0000A7
S1131DF0651F000005200000D51F000049200000D9
S1131E0080B586B000AFF860B960BB1D1A80FB686E
S1131E107B617B69002B08D0BB68002B05D0BB1D00
S1131E201B88002B01D0012300E000231A1C01238E
S1131E301340D8B23C23FF331A00144B1900144B3F
S1131E4098477B6944229A5A7B694C215B5A9A428F
S1131E5002D01C235B4215E07B69BA689A647B69F3
S1131E60BA1D4C2112885A527B694422002199528E
S1131E707B6901221A637B6908331800054B984774
S1131E80BB1D1B881800BD4606B080BD8C6E0000CB
S1131E90772000004537000080B588B000AFF860B7
S1131EA0B960BB1D1A801E23FB1800221A80FB6830
S1131EB0BB61BB69002B08D0BB68002B05D0BB1DE0
S1131EC01B88002B01D0012300E000231A1C0123EE
S1131ED01340D8B2AC235A001C4B19001C4B984732
S1131EE01023FB1818001B4B9847BB6934331800A8
S1131EF0194B984703007B611023FB181800174BFC
S1131F0098470FE0BB69343318001E23FB181B8865
S1131F101E22BA18591C11801A00BB689B1819009C
S1131F200F4B98471E23FB181A887B699A4206D2E6
S1131F301E23FA18BB1D12881B889A42E2D31E2363
S1131F40FB181B881800BD4608B080BD8C6E0000CD
S1131F5077200000150F000001240000370F000057
S1131F6019230000B0B584B000AF78607B68083BEB
S1131F70FB60FB6844229A5AFB684C215B5A9A42E4
S1131F8018D0FB6808331C00FB689A6CFB6844217A
S1131F905B5A591C8DB2F96844200D52D3181B7832
S1131FA019002000084B9847FB6808331800074BBA
S1131FB0984704E0FB6808331800054B9847C0466F
S1131FC0BD4604B0B0BDC046193700004537000017
S1131FD06537000080B584B000AF78607B68083B4B
S1131FE0FB60FB6800221A63FB685B6A002B04D069
S1131FF0FB685B6AFA6810009847C046BD4604B0A7
S113200080BD000080B584B000AF78600A00FB1C7E
S11320101A707B68083BFB60FB6834331A00FB1CB6
S11320201B7819001000074B9847FB689B6A002B2C
S113203004D0FB689B6AFA6810009847C046BD4606
S113204004B080BD8D23000080B584B000AF7860FB
S11320507B68083BFB60FB6800221A63FB68DB6A51
S1132060002B04D0FB68DB6AFA6810009847C0466E
S1132070BD4604B080BD80B584B000AFB9607A605D
S11320800F23FB18021C1A700F23FB181B78012264
S11320905340DBB2002B00D000BEC046BD4604B0A6
S11320A080BD000080B586B000AFF8607A600B2375
S11320B0FB180A1C1A701723FB180B22BA18127883
S11320C0D2081A700B23FB181B7807221340012235
S11320D09A401623FB181A70FB68002B09D07B6802
S11320E0002B06D00B23FB181B78072B01D80123E8
S11320F000E000231A1C01231340DBB22B493122D8
S113210018002B4B98471723FB181B78FA68D31831
S11321101B791622BA1812781340DBB2002B02D0B6
S113212002235B423EE0FA68224B11001800224B66
S1132130984703001A0001235340DBB2002B0CD054
S1132140FB6804330122002118001C4B9847FA68ED
S1132150184B110018001A4B9847FB687A689A606C
S11321601723FB181B781722BA181278F9688A18F3
S113217011791622BA1812780A43D1B2FA68D31820
S11321800A1C1A711723FB181B781722BA18127825
S11321900C49895C1622BA1812780A43D1B2094A4A
S11321A0D15400231800BD4606B080BDAC6E0000BB
S11321B07720000080000020C9210000256D000068
S11321C0FD2100008400002080B584B000AF786059
S11321D039607B681B68FB6008E0FA683B689A42D8
S11321E001D1012306E0FB681B68FB60FB68002B40
S11321F0F3D100231800BD4604B080BD80B582B081
S113220000AF786039603A687B68110018000E4BA3
S1132210984703005A1E9341DBB201225340DBB2BC
S11322201A1C01231340DBB2084939221800084B59
S113223098477B681A683B681A607B683A681A603A
S1132240C046BD4602B080BDC9210000CC6E00006E
S11322507720000080B582B000AF786039607B6879
S11322601A683B681A607B683A681A60C046BD46C3
S113227002B080BD80B584B000AF78607B681B6815
S1132280002B09D07B681B68FB607B681B681A689D
S11322907B681A60FB6800E000231800BD4604B0A8
S11322A080BD000080B584B000AFF860B9607A608A
S11322B0FB68002B07D0BB68002B04D07B68002B85
S11322C001D0012300E000231A1C01231340DBB2D8
S11322D00F49282218000F4B98477B68013B7A6806
S11322E0134002D00D235B420EE07B685A1EFB684C
S11322F05A60FB6800229A60FB689A68FB68DA609F
S1132300FB68BA681A6000231800BD4604B080BD9B
S1132310EC6E00007720000080B582B000AF7860DA
S113232039607B68002B04D03B68002B01D001236B
S113233000E000231A1C01231340DBB211494022A0
S11323401800114B98477B68DA687B689B689A424F
S113235011D07B681A687B6899687B685B680B405E
S1132360D3181A783B681A707B689B685A1C7B6880
S11323709A60002301E00A235B421800BD4602B0C4
S113238080BDC046EC6E00007720000080B582B0AE
S113239000AF78600A00FB1C1A707B685A1E9341D8
S11323A0DBB2154951221800144B98477B681A6810
S11323B07B68D9687B685B680B40D318FA1C127879
S11323C01A707B68DA687B689B68D21A7B685B68E2
S11323D09A4206D97B68DA687B685B68D21A7B68A4
S11323E09A607B68DB685A1C7B68DA6000231800FB
S11323F0BD4602B080BDC046EC6E000077200000F0
S113240080B582B000AF78607B685A1E9341DBB21E
S1132410064967221800064B98477B68DA687B6890
S11324209B68D31A1800BD4602B080BDEC6E000054
S11324307720000090B583B000AF39601100BB1D58
S1132440021C1A807B1D0A1C1A707B1D1B78043B1E
S1132450042B59D89A00344BD3181B689F46BB1DD4
S11324601C883A68314B3249100098470300634393
S11324705A1E2E4B0A2110009847030001334EE0E8
S1132480BB1D1C883A68294B2A4910009847030051
S113249063435A1E254B64211000984703000133FF
S11324A03DE0BB1D1C883868204BFA2291009847F8
S11324B003006343581E1D4BFA2291009847030002
S11324C001332CE0BB1D1C883A68184B64211000B2
S11324D09847030063435A1E144B1649100098474B
S11324E0030001331BE0BB1D1C883A680F4B0A2113
S11324F010009847030063435A1E0C4B0C4910000C
S11325009847030001330AE0BB1D1B883A68534314
S11325105A1E064B0849100098470300013318005F
S1132520BD4603B090BDC046346F0000995E000004
S1132530A08601001027000040420F0090B583B030
S113254000AF39601100BB1D021C1A807B1D0A1CE0
S11325501A707B1D1B78043B042B4BD89A002D4B1F
S1132560D3181B689F46BB1D1C883A682A4B2B490D
S113257010009847030063436422534345E0BB1DA6
S11325801C883A68244B264910009847030063438B
S11325901A0013009B009B185B0036E0BB1D1C88CF
S11325A038681D4BFA2291009847030063432CE0DE
S11325B0BB1D1C883A68184B64211000984703001F
S11325C063435A1E144B0A21100098470300013339
S11325D01BE0BB1D1C883A680F4B0A21100098476A
S11325E0030063435A1E0C4B6421100098470300F8
S11325F001330AE0BB1D1B883A685343581E064B3F
S1132600FA2291009847030001331800BD4603B035
S113261090BDC046486F0000995E0000A08601008E
S11326201027000080B582B000AF0200BB1D1A80E5
S11326300549BB1D1B8807221800044B984703005B
S11326401800BD4602B080BD00093D003D250000D4
S113265080B582B000AF786039607B685A683B68A7
S11326605B001E210B401A437B685A60C046BD467E
S113267002B080BD80B500AF0A4B002118000A4BA0
S113268098470220094B9847094B9847094B9847AC
S1132690094B9847094B9847FF20094B9847C04678
S11326A0BD4680BD0040004151260000712A000053
S11326B04528000045290000B127000091290000A9
S11326C02527000080B582B000AF78603960C0462D
S11326D07B685B683A681340FAD1C046BD4602B0D5
S11326E080BD000080B584B000AFF8607A600B2331
S11326F0FB180A1C1A700B23FB181A78FB680832A3
S113270092007968D150054AFB6811001800044B07
S11327109847C046BD4604B080BDC046FD070000D2
S1132720C526000080B582B000AF78607B680122C6
S1132730134005D0044A054B00211800044B984768
S1132740C046BD4602B080BD06010100001800402D
S1132750E526000080B582B000AF78600A00FB1C5B
S11327601A707B68FA1C12781A71C046BD4602B012
S113277080BD80B582B000AF78600A00FB1C1A707F
S11327807B68FA1C12785A71C046BD4602B080BDFF
S113279080B582B000AF78600A00FB1C1A707B68B9
S11327A0FA1C12789A71C046BD4602B080BD000082
S11327B080B582B000AF0A4B7B607B6808211800AB
S11327C0084B98477B6804211800074B98477B689F
S11327D001211800054B9847C046BD4602B080BD94
S11327E000040040912700007327000055270000D3
S11327F080B582B000AF786039607B683A681A614E
S1132800C046BD4602B080BD80B584B000AF7860DC
S11328107B68DB69FB60FB681B0A1F221340FB60BB
S1132820FB681800BD4604B080BD80B582B000AF1F
S1132830786039607B683A68DA61C046BD4602B0A8
S113284080BD000080B582B000AF104B7B60BB1C24
S113285000221A807B6818000D4B98470200BB1CAD
S11328601A80BB1C1B881B021A00F8235B011A4048
S11328707B6811001800074B98477B6805211800F6
S1132880054B9847C046BD4602B080BD00100040CD
S1132890092800002B280000F127000080B582B031
S11328A000AF78600A00FB1C1A70C0467B683822AF
S11328B09B5CDBB2FA1C12781340DBB2002BF5D11F
S11328C0C046BD4602B080BD80B582B000AF78601E
S11328D07B68DB681B09012213405A1E9341DBB25B
S11328E01800BD4602B080BD80B582B000AF7860EC
S11328F07B681B7DDBB2802252421343DAB27B68D1
S11329001A757B680E211800024B9847C046BD46D5
S113291002B080BD9D28000080B582B000AF786011
S11329200A00FB1C1A707B68FA1C12781A757B6803
S113293002211800024B9847C046BD4602B080BD34
S11329409D28000080B582B000AF0D4B7B607B6892
S1132950822118000B4B9847C0467B6818000A4B2D
S1132960984703001A0001235340DBB2002BF4D133
S11329707B681800054B9847C046BD4602B080BD31
S1132980000C004019290000C9280000E9280000B3
S113299080B582B000AF044B7B60BB1C00221A8060
S11329A0C046BD4602B080BD000C004080B582B078
S11329B000AF78607B689B79DBB21800BD4602B03B
S11329C080BD80B582B000AF78600A00FB1C1A702D
S11329D07B68FA1C12789A71C046BD4602B080BD6D
S11329E080B584B000AF78600A00FB1C1A700F2316
S11329F0FB187A6892781A700F23FB18FA1C1B785C
S1132A0012781340DAB20F23FB1803210A401A701C
S1132A100F23FB181B781800BD4604B080BD80B599
S1132A2084B000AF78600A00FB1C1A700F23FB18F7
S1132A307A6892781A700F23FB180F22BA1812784A
S1132A4003218A431A70FB1C1B7803221340D9B25A
S1132A500F23FB180F22BA1812780A431A707B68E6
S1132A600F22BA1812789A70C046BD4604B080BDD1
S1132A7080B582B000AF0200FB1D1A708023DB0515
S1132A8003211800104B984703001A00FB1D1B7804
S1132A90934215D08023DB05FF2118000B4B984788
S1132AA0FB1D1A788023DB0511001800084B98479A
S1132AB0C0468023DB051800064B9847031EF8D058
S1132AC0C046BD4602B080BDE1290000C329000014
S1132AD01F2A0000AD29000080B582B000AF7860E5
S1132AE03960C0467B681B693A681340FAD1C04616
S1132AF0BD4602B080BD80B582B000AF78607B680F
S1132B00802252009A81C046BD4602B080BD80B585
S1132B1082B000AF78607B689B899BB21800BD4689
S1132B2002B080BD80B582B000AF78607B681B883E
S1132B309BB2012213439AB27B681A807B680121FD
S1132B401800034B9847C046BD4602B080BDC0463E
S1132B50D92A000080B584B000AF78600F4A7B6842
S1132B60110018000E4B98470E23FB187A68128840
S1132B701A800E23FB181B885B089AB20E23FB18DD
S1132B8001210A401A800E23FB181B885A1E934108
S1132B90DBB21800BD4604B080BDC046038000000F
S1132BA0D92A000080B582B000AF78607B681B88AA
S1132BB09BB2022293439AB27B681A80044A7B68D0
S1132BC011001800034B9847C046BD4602B080BDB3
S1132BD003800000D92A000080B582B000AF78607D
S1132BE00A00BB1C1A807B68BA1C12881A80054A2A
S1132BF07B6811001800044B9847C046BD4602B0DC
S1132C0080BDC04603800000D92A000080B582B090
S1132C1000AF78607B6808211800044B98477B68F4
S1132C209B691800BD4602B080BDC046D92A000089
S1132C3080B582B000AF78607B68002B05D07B68DC
S1132C401B68002B01D0012300E000231A1C012380
S1132C501340DBB21B492F2218001B4B98471B4B18
S1132C607A681A607B681B6801211800184B984722
S1132C707B681B681800174B9847031E0AD07B68B3
S1132C801B681800144B98477B681B6802211800C6
S1132C900F4B98477B681B681800104B98477B685C
S1132CA01B68012118000A4B98477B681A68812326
S1132CB01B02190010000A4B984700231800BD4658
S1132CC002B080BD5C6F0000772000008800002007
S1132CD0D92A0000552B0000A52B0000252B00004D
S1132CE0D92B000080B582B000AF78607B68002BE0
S1132CF005D07B681B68002B01D0012300E0002372
S1132D001A1C01231340DBB2074987221800074B22
S1132D1098477B681B681800054B98470300180008
S1132D20BD4602B080BDC0465C6F00007720000045
S1132D300D2C000090B585B000AF78607B681B68EF
S1132D400E22BC1818000C4B9847030023800E2356
S1132D50FB181A8880235B00134009D07B685B68EA
S1132D607A68100098477B681B681800034B9847E3
S1132D70C046BD4605B090BD0F2B0000F72A0000E9
S1132D8080B500AF034B1B681800034B9847C0463F
S1132D90BD4680BD88000020352D000080B582B07E
S1132DA000AF0200FB1D1A70FB1D1B787F2B09D896
S1132DB0064BFA1D127811001F220A40012191408E
S1132DC00A001A60C046BD4602B080BD00E100E0C2
S1132DD080B582B000AF0200FB1D1A70FB1D1B788A
S1132DE07F2B0ED80949FB1D1B781A001F231340A3
S1132DF001229A40130080228B50BFF34F8FBFF300
S1132E006F8FC046BD4602B080BDC04600E100E001
S1132E1080B582B000AF0200FB1D1A70FB1D1B7849
S1132E207F2B0AD80749FB1D1B781A001F23134068
S1132E3001229A40C0235B00CA50C046BD4602B07E
S1132E4080BDC04600E100E080B582B000AF78608C
S1132E503960C0467B68DB693A681340FAD1C046E2
S1132E60BD4602B080BD80B582B000AF78603960E5
S1132E707B68DB693A6813405A1E9341DBB2180041
S1132E80BD4602B080BD80B582B000AF78603960C5
S1132E90C0467B68DB693A681340FAD1C046BD4638
S1132EA002B080BD80B582B000AF786039607B68C5
S1132EB0DB693A6813405A1E9341DBB21800BD46E1
S1132EC002B080BD80B582B000AF78603960C04682
S1132ED07B68DB693A681340FAD1C046BD4602B04C
S1132EE080BD80B582B000AF786039607B68DB69F3
S1132EF03A6813405A1E9341DBB21800BD4602B033
S1132F0080BD80B582B000AF78607B6801221A76FC
S1132F10C046BD4602B080BD80B582B000AF7860C7
S1132F207B6802221A76C046BD4602B080BD80B5D9
S1132F3082B000AF78607B681B7EDBB21800BD46B0
S1132F4002B080BD80B582B000AF78607B681B7E24
S1132F50DBB21A00012313405A1E9341DBB218005E
S1132F60BD4602B080BD80B582B000AF78607B689A
S1132F701B7EDBB25B08012213405A1E9341DBB275
S1132F801800BD4602B080BD80B582B000AF786045
S1132F907B681B7EDBB29B08012213405A1E9341BF
S1132FA0DBB21800BD4602B080BD80B582B000AF70
S1132FB078607B681B7EDBB2DB09012213405A1E5A
S1132FC09341DBB21800BD4602B080BD80B582B02B
S1132FD000AF78607B6880221A76C046BD4602B096
S1132FE080BD80B582B000AF78607B6801229A759D
S1132FF0C046BD4602B080BD80B582B000AF7860E7
S11330007B689B7DDBB21A00012313405A1E934157
S1133010DBB21800BD4602B080BD80B582B000AFFF
S113302078607B6801221A75C046BD4602B080BD37
S113303080B582B000AF78607B6802229A75C04682
S1133040BD4602B080BD80B582B000AF78607B68B9
S11330509B7DDBB25B08012213405A1E9341DBB215
S11330601800BD4602B080BD80B582B000AF786064
S11330707B6802221A75C046BD4602B080BD0000BE
S113308080B582B000AF78607B681B6802221A4367
S11330907B681A607B6803211800034B9847C0467D
S11330A0BD4602B080BDC046492E000080B582B046
S11330B000AF78607B681B68022293431A007B6828
S11330C01A607B6803211800024B9847C046BD462E
S11330D002B080BD492E000080B584B000AF786096
S11330E07B681B68FB60FB68DB0E01221340FB60FE
S11330F0FB685A1E9341DBB21800BD4604B080BD84
S113310080B584B000AF786039607B680321180013
S1133110064B98477B681B68FB60FB683A68134062
S1133120FB60FB681800BD4604B080BD492E00005A
S113313080B582B000AF786039607B683A681A6005
S11331407B6803211800034B9847C046BD4602B074
S113315080BDC046492E000080B582B000AF7860C3
S11331607B681B68022293431A007B681A607B68A1
S113317003211800024B9847C046BD4602B080BDEB
S1133180872E000080B584B000AF786039607B681A
S113319003211800064B98477B681B68FB60FB689B
S11331A03A681340FB60FB681800BD4604B080BD5C
S11331B0872E000080B582B000AF786039607B68EC
S11331C03A681A607B6803211800034B9847C0468D
S11331D0BD4602B080BDC046872E000080B582B0D7
S11331E000AF78607B681B68022293431A007B68F7
S11331F01A607B6803211800024B9847C046BD46FD
S113320002B080BDC52E000080B584B000AF7860E8
S113321039607B6803211800064B98477B681B685C
S1133220FB60FB683A681340FB60FB681800BD460E
S113323004B080BDC52E000080B582B000AF7860B8
S113324039607B683A681A607B6803211800034B75
S11332509847C046BD4602B080BDC046C52E00009A
S113326080B582B000AF78607B685B6880225200D2
S11332701A437B685A607B6804211800024B984704
S1133280C046BD4602B080BD492E000080B582B064
S113329000AF78607B685B68064A1A407B685A60B6
S11332A07B6804211800044B9847C046BD4602B011
S11332B080BDC046FFFEFFFF492E000080B582B0EE
S11332C000AF78607B685B688022D2021A437B6817
S11332D05A607B6804211800024B9847C046BD46DB
S11332E002B080BD492E000080B582B000AF786086
S11332F07B685B68064A1A407B685A607B680421D5
S11333001800044B9847C046BD4602B080BDC04675
S1133310FFFFFBFF492E000080B582B000AF78604C
S113332039607B685A683B681904C0239B020B40D0
S11333301A437B685A607B6804211800024B984743
S1133340C046BD4602B080BD492E000080B582B0A3
S113335000AF786039607B683A685A607B68042102
S11333601800034B9847C046BD4602B080BDC04616
S1133370492E000080B582B000AF786039607B6868
S11333803A685A60C046BD4602B080BD80B582B07E
S113339000AF786039607B683A685A607B680721BF
S11333A01800034B9847C046BD4602B080BDC046D6
S11333B0C52E000080B582B000AF786039607B68AC
S11333C03A68DA60C046BD4602B080BD80B582B0BE
S11333D000AF78600A00BB1C1A807B68BA1C128894
S11333E09A81C046BD4602B080BD80B582B000AFB0
S11333F078600A00FB1C1A707B68FA1C12789A73B6
S1133400C046BD4602B080BD80B584B000AF7860D0
S11334100A00FB1C1A707B685B6AFB60FB680B4A42
S11334201340FB60FB1C1B789B031A00FB681343CF
S1133430FB607B68FA685A627B6804211800044BBD
S11334409847C046BD4604B080BDC046FFBFFFFFDD
S1133450492E000080B582B000AF786039607B6887
S11334603A685A627B6804211800034B9847C046A7
S1133470BD4602B080BDC046492E000080B582B072
S113348000AF78607B6804211800044B98477B6880
S11334905B6A1800BD4602B080BDC046492E0000DC
S11334A080B582B000AF786039607B683A685A6250
S11334B0C046BD4602B080BD80B582B000AF786022
S11334C00A00FB1C1A707B68FA1C282112785A54D3
S11334D07B6804211800034B9847C046BD4602B0E0
S11334E080BDC046492E000080B582B000AF786030
S11334F07B6804211800054B98477B6828229B5C55
S1133500DBB21800BD4602B080BDC046492E0000A3
S113351080B582B000AF78600A00FB1C1A707B682B
S1133520FA1C282112785A54C046BD4602B080BD08
S113353080B582B000AF78607B6828229B5CDBB2E8
S11335401800BD4602B080BD80B582B000AF78607F
S11335500A00BB1C1A807B68BA1C12881A85C046F4
S1133560BD4602B080BD80B582B000AF78607B6894
S11335701B8D9BB21800BD4602B080BD80B582B0E1
S113358000AF78600A00FB1C1A707B68FA1C3021BB
S113359012785A54C046BD4602B080BD80B582B090
S11335A000AF78607B685B8B9BB2DB080122134021
S11335B05A1E9341DBB21800BD4602B080BD80B5EF
S11335C082B000AF78600A00BB1C1A807B68BA1C0A
S11335D012885A83C046BD4602B080BD80B582B011
S11335E000AF78607B685B8B9BB21800BD4602B06D
S11335F080BD000080B582B000AF78607B68042194
S11336001800074B98477B685B8B9BB21B099BB2E6
S1133610032213409BB21800BD4602B080BDC046D1
S1133620492E000080B582B000AF78607B68042129
S11336301800044B98477B685B8B9BB21800BD460F
S113364002B080BD492E000080B582B000AF786022
S11336500A00BB1C1A807B68BA1C12885A837B68D8
S113366004211800024B9847C046BD4602B080BDF5
S1133670492E000080B584B000AF786039607B6863
S11336805A1E9341DBB21C49C62218001B4B9847B3
S11336903B6818001A4B98470300FB60FB68002B3B
S11336A001D0FB6824E07B683A689A617A683B68D9
S11336B011001800134B98473B681800124B9847A9
S11336C003005BB21800114B98473B6818000E4B7F
S11336D0984703005BB218000D4B98473B681800ED
S11336E0094B984703005BB218000A4B9847002324
S11336F01800BD4604B080BD746F00007720000040
S113370091390000553900009D3E0000D12D000084
S1133710112E00009D2D000080B582B000AF7860AE
S11337200A00FB1C1A707B689A69FB1C1B789BB20D
S113373019001000024B9847C046BD4602B080BD38
S11337404935000080B582B000AF78607B689B6922
S11337501800034B9847C046BD4602B080BDC04622
S1133760E32F000080B582B000AF78607B689B696E
S11337701800034B9847C046BD4602B080BDC04602
S11337803130000080B582B000AF78607B68084AB1
S1133790934201D1052306E07B68BE2212069446BB
S11337A063449B0ADBB21800BD4602B080BDC0462C
S11337B00004004390B585B000AF78607B689B69D6
S11337C0FB60FB681800354B9847031E0FD0FB685D
S11337D01800334B9847031E09D0FB681800314B7F
S11337E098477B681B687A681000984753E0FB6829
S11337F018002D4B9847031E0FD0FB6818002B4B65
S11338009847031E09D0FB681800294B98477B682A
S11338109B687A68100098473DE0FB681800254BC8
S11338209847031E1BD0FB681800234B98470300DE
S11338301A003723134005D0FB683F2118001F4BA3
S1133840984728E07B685C68FB6818001C4B984725
S11338500300DAB27B6811001800A0471BE0FB6884
S11338601800184B9847031E15D0FB681800164B18
S113387098477B68DB687A6810009847FB681800F3
S11338800D4B98470300BB60BB689AB2FB681100FC
S113389018000A4B9847BD4605B090BD452F00005F
S11338A0F92F00001B300000672F00004730000094
S11338B069300000892F0000DD350000BF350000AD
S11338C067350000AB2F0000CD2F000090B585B008
S11338D000AF78600E23FC187B681800184B9847DB
S11338E0030023700F23FB1800221A7018E00F2323
S11338F0FB181A78134913009B009B189B005B5C10
S11339000E22BA1812789A4203D10F23FB181B789F
S113391012E00F23FB181A780F23FB1801321A70D8
S11339200F23FB181B78002BE1D0074A074B190023
S11339300020074B984700231800BD4605B090BDF2
S1133940853700000000002063020000746F00004F
S11339507720000080B582B000AF786039607A6863
S11339608423DB059A4202D1064B3A681A607B68CD
S1133970054A934202D1054B3A681A60C046BD46D7
S113398002B080BD8C0000200004004290000020A2
S113399090B585B000AF78600F23FC187B681800E1
S11339A06F4B9847030023707B68012118006D4B0F
S11339B0984703001A0001235340DBB2002B25D0A3
S11339C00F23FB181A78684913009B009B189B006F
S11339D0CB1804331B681C221340BB607B68022194
S11339E01800624B9847031E08D07B681800604B90
S11339F098477B68022118005E4B9847BB680122F8
S1133A001A437B68110018005B4B98477B680121BF
S1133A101800584B98470F23FB181A785249130083
S1133A209B009B189B00CB1804331A687B68110019
S1133A301800514B98470F23FB181A784A49130072
S1133A409B009B189B00CB1808331A687B681100F5
S1133A5018004A4B98470F23FB181A784249130061
S1133A609B009B189B00CB1804331A6880239B018E
S1133A7013400ED10F23FB181A783B4913009B0007
S1133A809B189B00CB1804331A68C023DB01134036
S1133A9030D00F23FB181A78334913009B009B186E
S1133AA09B00CB180C331B88DB04DB0C99B27A68BF
S1133AB09389C904C80C5B0B5B03191C031C0B43DF
S1133AC093810F23FB181A78274913009B009B1836
S1133AD09B00CB180E331B781A1C07231340D9B252
S1133AE07A6893894803DB04DB0C191C031C0B4321
S1133AF093810FE00F23FB181A781B4913009B00D6
S1133B009B189B00CB180C331A887B681100180093
S1133B101B4B98470F23FB181A78134913009B007B
S1133B209B189B00CB180F331A787B681100180080
S1133B30144B98470F23FB181A780B4913009B006A
S1133B409B189B00CB1810331A787B68110018005F
S1133B500D4B984700231800BD4605B090BDC046E4
S1133B60CD380000E32E00000000002009320000E0
S1133B70DD310000C52E0000393200008D33000015
S1133B80CD330000EB3300007D35000090B585B0E7
S1133B9000AF78600E23FC187B681800194B984717
S1133BA0030023700F23FB1800221A7019E00F235F
S1133BB0FB181A78144913005B009B18DB005B5C4C
S1133BC00E22BA1812789A4204D10F23FB181B78DC
S1133BD05BB213E00F23FB181A780F23FB18013292
S1133BE01A700F23FB181B78002BE0D0074A084BF0
S1133BF019000020074B984701235B421800BD467B
S1133C0005B090BD8537000014000020C9030000F2
S1133C10746F00007720000080B582B000AF786038
S1133C207B6803211800034B9847C046BD4602B089
S1133C3080BDC0461933000090B587B000AFF8606E
S1133C40B9607A60FB681800874B984703007B6172
S1133C501223FC18FB681800844B98470300238048
S1133C60BB680122134000D1A3E01223FB181B8878
S1133C700222134020D0FB6818007D4B98477B68D4
S1133C805B889BB28022520113439AB27B685A80AC
S1133C907B685B889BB2774A13409AB27B685A80F0
S1133CA01223FB181B880122134002D005235B4218
S1133CB0D6E004235B42D3E01223FB181B880422C2
S1133CC0134021D07B685B68002B08DD7B685B8830
S1133CD09BB28022520113439AB27B685A807B685C
S1133CE05B889BB21BB2002B03DAFB681800624BA3
S1133CF098477B685B889BB25E4A13409AB27B68A4
S1133D005A8002235B42ABE07B685B889BB21A005B
S1133D108023DB00134021D07B681B881B125B00CF
S1133D201A0006231A401400FB681800534B9847E6
S1133D3002008023DB0113402343F1221A43FB6872
S1133D40110018004E4B98477B685B889BB24D4A24
S1133D5013409AB27B685A80002381E07B685B68D9
S1133D60002B12D17B685B889BB21BB2002B03DA59
S1133D70FB681800404B98477B685B889BB23D4AC0
S1133D8013409AB27B685A8011E07B689B681A786A
S1133D90FB68110018003C4B98477B689B685A1CD1
S1133DA07B689A607B685B685A1E7B685A60002354
S1133DB056E0BB680222134051D07B685B68002B3D
S1133DC046D01223FB181B880422134040D17B6881
S1133DD05B685A1E7B685A607B685B68002B02D163
S1133DE07B69002B06D07B685B68012B06D17B695D
S1133DF0002B03D0FB681800244B98477B685B6852
S1133E00002B15D17B685B889BB21BB2002B07DAB1
S1133E10FB6818001E4B9847FB681800164B984720
S1133E207B685B889BB2134A13409AB27B685A80C2
S1133E307B689C68621C7B689A60FB681800154B61
S1133E40984703002370FB681800134B984706E05B
S1133E50FB681800104B984702235B4200E00023E4
S1133E601800BD4607B090BDD930000025360000CB
S1133E70032F0000FFFEFFFF193C00007D3400000B
S1133E8055340000FFFBFFFFB9340000BD320000D1
S1133E908D320000E9340000192F000080B582B093
S1133EA000AF78607B681800044B98470300083320
S1133EB0DBB21800BD4602B080BDC04685370000A5
S1133EC080B582B000AF786039607B685A1E934138
S1133ED0D8B2A723DA00094B1900094B98477B682D
S1133EE03A681A617B683A6811001800054B9847D4
S1133EF003001800BD4602B080BDC046746F0000C8
S1133F0077200000B142000080B582B000AF786035
S1133F107B685A1E9341DBB2074A08491800084BD4
S1133F2098477B681B691800064B984703001800E4
S1133F30BD4602B080BDC04655050000746F000048
S1133F40772000002142000080B584B000AF786083
S1133F503960124BFB607B681B69BB60BB6818004F
S1133F600F4B984703001A003B681A60FB685A1EFF
S1133F70FA60002B02D105235B420AE03B681B6810
S1133F800122134004D13B681B6802221340E5D090
S1133F9000231800BD4604B080BDC046FFFF0000EA
S1133FA02F2F000090B587B000AF78607B681B6945
S1133FB07B617B683B617B6918003F4B984703003A
S1133FC0FB607B685A1E9341DBB23C4A3C491800B3
S1133FD03C4B98473B695B68012B07D1FB68002B7E
S1133FE004D07B691800384B984703E07B691800BC
S1133FF0364B98473B691B881A008023DB0013402B
S113400028D03B695B889BB21A000123134008D077
S11340103B695B889BB28022D20013439AB23B690E
S11340205A803B691B885B001A00294B1A40140014
S11340307B691800274B984702008023DB0113405B
S11340402343802212021A437B6911001800224B79
S113405098471EE03B691B885B00FF2213403A69C6
S1134060528892B2110001220A40511E8A41D2B2F2
S113407013431C007B691800164B984702008023E9
S1134080DB01134022001A437B6911001800124B14
S113409098470823FA187B68110018000F4B9847BB
S11340A0B9683A697B6918000D4B984703001800FA
S11340B0BD4607B090BDC046D9300000C50500001C
S11340C0746F000077200000BD320000E932000068
S11340D0FE0700007D34000055340000493F000015
S11340E0393C000090B587B000AF786039607B68D8
S11340F01B693B617B685A1E9341D8B2BE23DA0028
S11341003D4B19003D4B98477B681B695A1E9341F0
S1134110DBB23B4A38491800384B98473B685A1E73
S11341209341DBB2374A34491800344B98477B68D3
S11341305B889BB21A0080235B00134002D00623E5
S11341405B4254E03B685B889BB28022520013437D
S11341509AB23B685A807B683A6813CA13C33B69B6
S11341601800294B98477B681800284B9847030090
S11341707B617B69002B31D07B685B889BB2244ACE
S113418013409AB27B685A807B6930E00C23FA189A
S11341907B68110018001F4B984703007B617B6903
S11341A0002B13D03B685B889BB21BB2002B03DA55
S11341B03B691800184B98477B685B889BB2144A8C
S11341C013409AB27B685A807B6910E0F9687A6878
S11341D03B691800114B984703007B617B685B883F
S11341E09BB21A0080235B001340CFD17B69180077
S11341F0BD4607B090BDC046746F00007720000034
S1134200F1050000F205000061320000A53F000046
S1134210FFFEFFFF493F0000193C0000393C00004D
S113422080B584B000AF78601A4BFB600423BB6098
S11342307B685A1E9341DBB2174A18491800184B81
S113424098477B681800174B984716E0FB68013BBA
S1134250FB60FB68002B10DCBB68013BBB60BB68E8
S1134260002B07D00B4BFB607B68102118000E4B12
S1134270984702E006235B4207E07B6818000B4B7B
S113428098470300012BE1D100231800BD4604B078
S113429080BDC046FFFF000025060000746F0000CB
S11342A0772000008130000049360000F535000019
S11342B080B584B000AF786039603B6818004F4B1C
S11342C0984703001A000F23FB181A703B6801215A
S11342D018004B4B984703001A0001235340DBB2EC
S11342E0002B25D00F23FB181A78464913005B00D6
S11342F09B18DB00CB1804331B681C221340BB60E3
S11343003B6802211800404B9847031E08D03B68C5
S113431018003E4B98473B68022118003C4B9847D5
S1134320BB6801221A433B6811001800394B9847B7
S11343303B6801211800364B98470F23FB181A7865
S1134340304913005B009B18DB00CB1804331A6858
S11343503B68110018002F4B98470F23FB181A785D
S1134360284913005B009B18DB00CB1808331A683C
S11343703B6811001800284B98470F23FB181A7844
S1134380204913005B009B18DB00CB180C331A6820
S11343903B6811001800214B98470F23FB181A782B
S11343A0184913005B009B18DB00CB1804331B680F
S11343B01B0E9BB2032213409AB27B689A817B68DE
S11343C09B8901229A429B415B42DAB23B6811000D
S11343D01800134B98470F23FB181A780949130048
S11343E05B009B18DB00CB1812331A887B68DA81D8
S11343F000231800BD4604B080BDC0468D3B0000BC
S1134400672E00001400002001310000AD300000D0
S1134410492E0000313100004D330000B533000057
S11344200934000080B584B000AF786039607B68DF
S11344305A1E9341DBB21C4A1C4918001C4B984776
S11344403B6818001B4B98470300FB60FB68002B7C
S113445001D0FB6824E07B683A681A607A683B689C
S113446011001800144B98473B681800134B9847E9
S113447003005BB21800124B98473B6818000F4BBF
S1134480984703005BB218000E4B98473B6818002E
S11344900A4B984703005BB218000B4B9847002364
S11344A01800BD4604B080BDD2060000746F000041
S11344B077200000CD450000553900009D3E0000E6
S11344C0D12D0000112E00009D2D000080B582B07A
S11344D000AF78600A00FB1C1A707B681A68FB1C2A
S11344E01B7819001000034B9847C046BD4602B024
S11344F080BDC0461135000090B585B000AF78602E
S11345007B681B68FB60FB681800284B9847030016
S1134510BB60BB68802213400FD07B685B685A1E67
S11345209341DBB2224A23491800234B98477B6806
S11345305B687A681000984734E0BB680422134033
S113454030D0FB6818001D4B984703001A00012364
S11345505340DBB2002B16D07B68DB685A1E9341B4
S1134560DBB2174A13491800134B98477B68DC6881
S1134570FB681800134B984703001A007B6811006E
S11345801800A0470EE07B689B685A1E9341DBB27B
S11345900D4A08491800084B98477B689B687A685D
S11345A010009847C046BD4605B090BD2F2F0000AF
S11345B0A7070000746F0000772000009D350000FD
S11345C0AB07000031350000AE07000090B585B0A0
S11345D000AF78600F23FC187B681800384B9847AD
S11345E0030023700F23FB181B785BB2013302D145
S11345F00D235B425FE07B6801211800314B984733
S113460003001A0001235340DBB2002B23D00F23F5
S1134610FB181B785BB22C4A1B01D31804331B68AC
S11346201C221340BB607B6802211800274B98476B
S1134630031E08D07B681800254B98477B6802212D
S11346401800244B9847BB6801221A437B68110069
S11346501800214B98477B68012118001D4B98478F
S11346600F23FB181B785BB2174A1B01D3180433C2
S11346701A687B6811001800174B98470F23FB1822
S11346801B785BB2104A1B01D31808331A687B6885
S113469011001800114B98470F23FB181B785BB2CD
S11346A0094A1B01D3180C331A687B6811001800DF
S11346B00B4B984700231800BD4605B090BDC0467B
S11346C0E5460000A52E00002C00002085310000E6
S11346D059310000872E0000B53100007533000009
S11346E0A134000090B585B000AF78600E23FC18AB
S11346F07B681800184B9847030023700F23FB189E
S113470000221A7016E00F23FB181A78134B1201BB
S1134710D35C0E22BA1812789A4204D10F23FB18E4
S11347201B785BB213E00F23FB181A780F23FB18D6
S113473001321A700F23FB181B78002BE3D0084AB0
S1134740084B19000020084B984701235B421800CE
S1134750BD4605B090BDC046853700002C00002042
S1134760EB070000746F00007720000080B500AFF5
S1134770034B1B681800034B9847C046BD4680BDD9
S11347808C000020B537000080B500AF034B1B68D8
S11347901800034B9847C046BD4680BD90000020DA
S11347A0F944000080B582B000AF7860044B054A3C
S11347B05A60034B05221A60C046BD4602B080BD54
S11347C010E000E0FFFFFF0080B582B000AF78602A
S11347D07B681800024B9847C046BD4602B080BDB6
S11347E0A547000080B584B000AF786039603B68AD
S11347F01A0E0F23FB181A703B68BB6011E0164BAE
S1134800164A5A60144B154A9A60C046124B1A68ED
S113481080235B021340F9D0BB68114A9446634479
S1134820BB600F23FB181B780F22BA18591E117096
S1134830002BE4D1084BBA685A60074BBA689A60F7
S1134840C046054B1A6880235B021340F9D0C0466A
S1134850BD4604B080BDC04610E000E0FFFFFF008D
S1134860010000FF80B582B000AF0200FB1D1A708A
S1134870FB1D1B787F2B09D8064BFA1D12781100FB
S11348801F220A40012191400A001A60C046BD4619
S113489002B080BD00E100E080B582B000AF02004C
S11348A0FB1D1A70FB1D1B787F2B0ED80949FB1DBD
S11348B01B781A001F23134001229A401300802200
S11348C08B50BFF34F8FBFF36F8FC046BD4602B00E
S11348D080BDC04600E100E080B582B000AF0200B8
S11348E0FB1D1A70FB1D1B787F2B0AD80749FB1D83
S11348F01B781A001F23134001229A40C0235B0037
S1134900CA50C046BD4602B080BDC04600E100E0CA
S113491080B582B000AF78603960C0467B681B699F
S11349203A681340FAD1C046BD4602B080BD80B596
S113493082B000AF786039607B681B693A681340C5
S11349405A1E9341DBB21800BD4602B080BD80B54B
S113495082B000AF78607B689B7ADBB21A000123D7
S113496013405A1E9341DBB21800BD4602B080BD0D
S113497080B582B000AF78607B6801229A72C0462D
S1134980BD4602B080BD80B582B000AF78607B6860
S113499001225A72C046BD4602B080BD80B582B0C5
S11349A000AF78607B681B68022293431A007B681F
S11349B01A607B6803211800024B9847C046BD4625
S11349C002B080BD1149000080B584B000AF7860AA
S11349D039607B6803211800064B98477B681B6885
S11349E0FB60FB683A681340FB60FB681800BD4637
S11349F004B080BD1149000080B582B000AF78607A
S1134A0039607B683A681A607B6803211800034B9D
S1134A109847C046BD4602B080BDC046114900005B
S1134A2080B582B000AF78600A00BB1C1A807B6836
S1134A30BA1C1288DA80C046BD4602B080BD80B57B
S1134A4082B000AF78600A00FB1C1A707B68FA1C05
S1134A5012781A73C046BD4602B080BD80B582B0DC
S1134A6000AF78600A00FB1C1A707B68FA1C12788D
S1134A70DA73C046BD4602B080BD000080B582B086
S1134A8000AF78600A00FB1C1A707B68FA1C12786D
S1134A90DA767B6820211800024B9847C046BD4651
S1134AA002B080BD1149000080B582B000AF7860CB
S1134AB008001100FB1C021C1A70BB1C0A1C1A7093
S1134AC0FB1C1B787A68D318BA1C12781A777B6897
S1134AD0C0211800024B9847C046BD4602B080BDB5
S1134AE01149000080B582B000AF78600800110061
S1134AF0FB1C021C1A703B000A1C1A80FB1C1B784E
S1134B007A680C335B00D31804333A0012881A8095
S1134B107B68C0211800034B9847C046BD4602B0CD
S1134B2080BDC0461149000080B584B000AFF86074
S1134B307A600B23FB180A1C1A700B23FB181B78D2
S1134B40FA6806339B00D31804337A681A60FB684A
S1134B50C0211800024B9847C046BD4604B080BD32
S1134B601149000090B585B000AF786039600F231B
S1134B70FC183B681800AB4B9847030023707B6814
S1134B803A68DA60A84B8D2219000120A74B984798
S1134B903B6801211800A64B984703001A00012323
S1134BA05340DBB2002B14D03B6802211800A14B08
S1134BB09847031E08D03B6818009F4B98473B68F2
S1134BC0022118009D4B98473B68012118009C4B1B
S1134BD098473B6801211800984B98470F23FB180E
S1134BE000229A56974913009B009B189B00CB18F0
S1134BF004331A683B6811001800914B98470F233F
S1134C00FB1800229A568F4913009B009B189B00A7
S1134C10CB180A331A783B68110018008A4B98475E
S1134C200F23FB1800229A56864913009B009B18F9
S1134C309B00CB1808331A883B6811001800834B7B
S1134C4098473B6801211800814B98470F23FB18B4
S1134C5000229A567B4913009B009B189B00CB189B
S1134C6004331B680C221340082B22D10F23FB189A
S1134C7000229A56734913009B009B189B00CB1883
S1134C800C331A683B6800211800724B98470F23B5
S1134C90FB1800229A566B4913009B009B189B003B
S1134CA0CB1810331A683B6801211800694B9847E8
S1134CB078E00F23FB1800229A56624913009B00E8
S1134CC09B189B00CB1804331B680C22134024D17F
S1134CD00F23FB1800229A565A4913009B009B1875
S1134CE09B00CB180C331B689AB23B680021180058
S1134CF0594B98470F23FB1800229A565149130029
S1134D009B009B189B00CB1810331B689AB23B681E
S1134D1001211800504B984744E00F23FB18002250
S1134D209A56484913009B009B189B00CB180433E8
S1134D301B680C221340042B34D10F23FB180022D0
S1134D409A56404913009B009B189B00CB180C33C8
S1134D501B68DAB23B6800211800404B98470F23C8
S1134D60FB1800229A56374913009B009B189B009E
S1134D70CB1810331B68DAB23B6801211800374B9B
S1134D8098470F23FB1800229A562E4913009B00C4
S1134D909B189B00CB180B331A783B681100180042
S1134DA02F4B98473B6818002E4B98477A683B680E
S1134DB0110018002C4B98470F23FB1800229A5619
S1134DC0204913009B009B189B00CB1801331B78D0
S1134DD05BB21800254B98470F23FB1800229A5604
S1134DE0184913009B009B189B00CB1801331B78B8
S1134DF05BB218001E4B98470F23FB1800229A56EB
S1134E00104913009B009B189B00CB1801331B789F
S1134E105BB21800174B984700231800BD4605B035
S1134E2090BDC046DD4E0000A46F00007720000056
S1134E302F490000C94900009D49000011490000A4
S1134E40F94900003C0000205D4A0000214A0000AE
S1134E503F4A0000294B0000E54A0000A94A00002F
S1134E607D4A000087490000694F0000994800000E
S1134E70D94800006548000080B500AF0023180041
S1134E80BD4680BD80B584B000AF78607B68DB68C8
S1134E90FB60FB681800084B9847031E08D0FB68AA
S1134EA01800064B98477B681B687A68100098477F
S1134EB0C046BD4604B080BD4F49000071490000A2
S1134EC080B500AF034B1B681800034B9847C046DE
S1134ED0BD4680BD94000020854E000090B585B08D
S1134EE000AF78600E23FC187B6818001A4B9847B3
S1134EF0030023700F23FB1800221A7019E00F23FC
S1134F00FB181A78154913009B009B189B005B5CE7
S1134F100E22BA1812789A4204D10F23FB181B7878
S1134F205BB214E00F23FB181A780F23FB1801322D
S1134F301A700F23FB181B78002BE0D09E235A0015
S1134F40074B19000020074B984701235B421800C8
S1134F50BD4605B090BDC046914F00003C00002006
S1134F60A46F00007720000080B582B000AF7860A5
S1134F7039607B68044A934202D1044B3A681A6050
S1134F80C046BD4602B080BD00200042940000200F
S1134F9080B582B000AF78607B68074A934201D144
S1134FA0042305E07B68054A944663449B0ADBB20C
S1134FB01800BD4602B080BD0008004300E0FFBDFC
S1134FC080B582B000AF78603960C0467B689B686A
S1134FD03A681340FAD1C046BD4602B080BD000015
S1134FE080B584B000AF78607B680E2118000D4B4B
S1134FF098470F23FB187A6812781A700F23FB184E
S11350001B785B08DAB20F23FB1801210A401A70DF
S11350100F23FB181B785A1E9341DBB21800BD46C0
S113502004B080BDC14F000080B582B000AF78608D
S11350307B681B78DBB204229343DAB27B681A7074
S11350407B680E211800034B9847C046BD4602B04A
S113505080BDC046C14F000080B584B000AF786009
S11350607B680E2118000C4B98470F23FB187A68B5
S113507012781A700F23FB180F22BA181278D2096B
S11350801A700F23FB181B785A1E9341DBB21800C9
S1135090BD4604B080BDC046C14F000080B584B099
S11350A000AF78600A00FB1C1A700F23FB187A68A3
S11350B052781A700F23FB180F22BA1812780F2196
S11350C08A431A70FB1C1B780F221340D9B20F239A
S11350D0FB180F22BA1812780A431A707B680F2241
S11350E0BA1812785A70C046BD4604B080BD80B567
S11350F084B000AF78600F23FB187A6852781A7076
S11351000F23FB180F22BA1812780F210A401A70C5
S11351100F23FB181B781800BD4604B080BD0000A7
S113512080B582B000AF78607B68002B05D07B68C7
S11351301B68002B01D0012300E000231A1C01236B
S11351401340DBB2124950221800124B98477B6877
S11351501B681800104B9847031E06D17B681B6818
S113516018000E4B9847031E02D011235B420BE03C
S11351707B681B6818000A4B98477B681B680021F2
S11351801800084B984700231800BD4602B080BDA4
S1135190B86F00007720000059500000E14F000074
S11351A0295000009D50000090B587B000AF786092
S11351B039607B68002B05D07B681B68002B01D00D
S11351C0012300E000231A1C01231340DBB22A4907
S11351D0C1221800294B98477B681B681322BC180E
S11351E01800274B9847030023701323FB181B78E0
S11351F00B2B2FD89A00234BD3181B689F460823E8
S11352007B612AE010237B6127E020237B6124E07B
S113521040237B6121E080237B611EE080235B00CF
S11352207B611AE080239B007B6116E08023DB0016
S11352307B6112E080231B017B610EE080235B0114
S11352407B610AE080239B017B6106E08023DB0114
S11352507B6102E001235B420AE07B69FA2292004F
S11352605A43094B3968100098470300FB60FB68F8
S11352701800BD4607B090BDB86F0000772000004D
S1135280EF500000D06F0000995E000080B500AFC1
S1135290024B9847024B9847FEE7C04615010000B1
S11352A0615E000080B582B000AF78607B681B68E7
S11352B01800BD4602B080BD80B582B000AF7860F2
S11352C07B68002B02D07B681B6800E00023180079
S11352D0BD4602B080BD000080B500AF0A4A0B4B4A
S11352E0012118000A4B9847074A084B002118006F
S11352F0074B9847044A054B02211800044B984772
S1135300C046BD4680BDC0465553000098000020ED
S1135310A520000080B582B000AF78607B685A1E7B
S11353209341DBB2074940221800074B98477A683B
S1135330064B11001800064B9847C046BD4602B004
S113534080BDC0460070000077200000A40000204B
S1135350FD21000080B588B000AF02003960FB1D5C
S11353601A70FB1D1B78002B2DD13B683B61324B1F
S11353701800324B98470300FB6120E03B695A78E0
S11353800C23FB185A700C23FB1801221A70FB69BA
S11353905B680C22BA18100098473B691B781A0006
S11353A00C23FB181B7813405A1E9341DAB23B6955
S11353B01A70FB691800224B98470300FB61FB69D4
S11353C0002BDBD134E0FB1D1B78022B16D11D4BC7
S11353D018001A4B98470300BB610BE0BB695B687C
S11353E03A68D2B210009847BB691800144B98472A
S11353F00300BB61BB69002BF0D119E0FB1D1B78D6
S1135400012B15D1104B18000C4B984703007B61FE
S11354100BE07B695B683A68D2B2100098477B69FD
S11354201800074B984703007B617B69002BF0D180
S1135430C046BD4608B080BDA4000020A5520000AF
S1135440B9520000AC000020A800002080B582B052
S113545000AF78607B6800221A70C046BD4602B077
S113546080BD000080B500AF054B9847054B064A48
S11354705A60044B1800054B9847C046BD4680BD92
S1135480D9520000B00000204D5400001553000014
S113549080B586B000AFF860B960FB1D1A70FB6878
S11354A07B610A4AB968FB681800094B9847FB6896
S11354B01B683B6180231A013B6918211800054BC6
S11354C09847FB681800BD4606B080BD24700000F4
S11354D03D5E0000ED16000090B589B000AF786025
S11354E00C23FB1805221A707B681B68BB61002320
S11354F07B6180231A01BB6918211800204B98474F
S1135500BB6914330C22B918012218001D4B9847AB
S113551003007B61BB6914330C22B9180222180002
S1135520194B984703007B610C23FB181B781A0066
S11355301F2313401B020C22BA1852789B18FB61DC
S1135540FB69124A934204DDFB69114A94466344A1
S1135550FB61104BF86998470F4C00220F4BA04792
S113556003000C00190022000D4B0800110098479D
S1135570031C3B613B69181CBD4609B090BDC04685
S1135580ED160000651A0000B91A0000FF0F0000B4
S113559000E0FFFF096B0000096600000000B03F57
S11355A08D6B000080B582B000AF786039603A68D6
S11355B07B68110018001E4B98470300013302D189
S11355C001235B4230E03A687B6811001800194BF4
S11355D098470300013302D101235B4224E03A6877
S11355E07B6811001800144B98470300013302D163
S11355F001235B4218E03A687B68110018000F4BE6
S113560098470300013302D101235B420CE03A685E
S11356107B68110018000A4B98470300013302D13C
S113562001235B4200E000231800BD4602B080BDA8
S11356304556000009580000E5590000C15B000010
S11356409D5D000080B586B000AF786039607B68EE
S11356501B687B617B691433180080231B011A00CB
S11356601821644B98470C23FB18022200211800D0
S1135670614B98471023FB1801221A703B681B6882
S11356805B7BDB18DAB21023FB185A703B681B688B
S1135690DB7B002B07D01023FB185B780133DAB2D5
S11356A01023FB185A703B681B681B7C002B09D025
S11356B01023FB189B78802252421343DAB2102342
S11356C0FB189A703B681B685B7C002B08D0102386
S11356D0FB189B7840221343DAB21023FB189A700C
S11356E03B681B689B7C002B08D01023FB189B781D
S11356F020221343DAB21023FB189A703B681B680C
S1135700DB7C002B08D01023FB189B78102213435A
S1135710DAB21023FB189A703B681B68DB7D002B00
S113572008D01023FB189B7808221343DAB2102305
S1135730FB189A703B681B681B7D002B08D0102354
S1135740FB189B7804221343DAB21023FB189A70D7
S11357503B681B685B7D002B08D01023FB189B78EB
S113576002221343DAB21023FB189A703B681B68B9
S11357709B7D002B08D01023FB189B780122134338
S1135780DAB21023FB189A707B6914331022B9180B
S113579003221800194B9847FA239B001800184B52
S11357A098477B6914331022B91801221800134B4F
S11357B098477B6914330C22B91802221800114B44
S11357C098471023FB185A780C23FB181B789A422D
S11357D007D11023FB189A780C23FB185B789A42A4
S11357E002D001235B4200E000231800BD4606B04E
S11357F080BDC046ED160000256D0000651A00004E
S113580065150000B91A000090B589B000AF786042
S113581039607B681B687B610C23FB180322002121
S11358201800684B98470C23FB1802221A703B6837
S11358301B681A681E23FC18634B101C984703004E
S113584023803B681B681B68BB611E23FB18002276
S11358509B5E002B17DA0C23FB185B781022134392
S1135860DAB20C23FB185A701E23FB181B885B4208
S11358709AB21E23FB181A803B681B681B6880229F
S113588012065340BB611E23FB1800229B5E1B11B2
S11358901BB2DAB20C23FB185A701E23FB181B88A8
S11358A0DBB21B01DAB20C23FB189A70464BB869C1
S11358B098470200454B10009847021C444B111CAA
S11358C0B8699847031C1A1C424B4349101C98475B
S11358D0031C1A1C1E23FC183B4B101C9847030086
S11358E023801E23FB1800229B5E562B0FDC1E23F5
S11358F0FB1800229B5E3E2B09DD0C23FB189B78D2
S11359000C221343DAB20C23FB189A702AE01E23EC
S1135910FB1800229B5E3D2B0FDC1E23FB1800228C
S11359209B5E302B09DD0C23FB189B780822134364
S1135930DAB20C23FB189A7014E01E23FB18002221
S11359409B5E2F2B0EDC1E23FB1800229B5E0D2B6F
S113595008DD0C23FB189B7804221343DAB20C23D2
S1135960FB189A707B6914330C22B91803221800AF
S11359701A4B98477B6914330C22B918012218007A
S1135980164B98477B6914331022B9180222180069
S1135990134B98470C23FB185A781023FB181B78D9
S11359A09A4207D10C23FB189A781023FB185B78D2
S11359B09A4202D001235B4200E000231800BD4656
S11359C009B090BD256D00002965000069650000DF
S11359D0F1610000B15F00000000C842651A0000D8
S11359E0B91A000090B589B000AF786039607B685F
S11359F01B687B610C23FB18032200211800684BF1
S1135A0098470C23FB1803221A703B681B685A68DA
S1135A101E23FC18634B101C9847030023803B682B
S1135A201B685B68BB611E23FB1800229B5E002B76
S1135A3017DA0C23FB185B7810221343DAB20C2319
S1135A40FB185A701E23FB181B885B429AB21E2354
S1135A50FB181A803B681B681B688022120653409F
S1135A60BB611E23FB1800229B5E1B111BB2DAB222
S1135A700C23FB185A701E23FB181B88DBB21B0176
S1135A80DAB20C23FB189A70464BB86998470200A7
S1135A90454B10009847021C444B111CB8699847A9
S1135AA0031C1A1C424B4349101C9847031C1A1C24
S1135AB01E23FC183B4B101C9847030023801E2315
S1135AC0FB1800229B5E562B0FDC1E23FB180022C2
S1135AD09B5E3E2B09DD0C23FB189B780C221343A1
S1135AE0DAB20C23FB189A702AE01E23FB1800225A
S1135AF09B5E3D2B0FDC1E23FB1800229B5E302B8C
S1135B0009DD0C23FB189B7808221343DAB20C231B
S1135B10FB189A7014E01E23FB1800229B5E2F2BA7
S1135B200EDC1E23FB1800229B5E0D2B08DD0C23CC
S1135B30FB189B7804221343DAB20C23FB189A70E7
S1135B407B6914330C22B918032218001A4B9847A6
S1135B507B6914330C22B91801221800164B98479C
S1135B607B6914331022B91802221800134B98478A
S1135B700C23FB185A781023FB181B789A4207D180
S1135B800C23FB189A781023FB185B789A4202D0F6
S1135B9001235B4200E000231800BD4609B090BD1C
S1135BA0256D00002965000069650000F1610000B1
S1135BB0B15F00000000C842651A0000B91A000075
S1135BC090B589B000AF786039607B681B687B61F1
S1135BD00C23FB18032200211800684B98470C2360
S1135BE0FB1803221A703B681B689A681E23FC1872
S1135BF0634B101C9847030023803B681B689B6819
S1135C00BB611E23FB1800229B5E002B17DA0C23BA
S1135C10FB185B7810221343DAB20C23FB185A707A
S1135C201E23FB181B885B429AB21E23FB181A80A2
S1135C303B681B681B68802212065340BB611E230D
S1135C40FB1800229B5E1B111BB2DAB20C23FB185B
S1135C505A701E23FB181B88DBB21B01DAB20C231B
S1135C60FB189A70464BB86998470200454B1000E0
S1135C709847021C444B111CB8699847031C1A1C12
S1135C80424B4349101C9847031C1A1C1E23FC1842
S1135C903B4B101C9847030023801E23FB18002253
S1135CA09B5E562B0FDC1E23FB1800229B5E3E2BB3
S1135CB009DD0C23FB189B780C221343DAB20C2366
S1135CC0FB189A702AE01E23FB1800229B5E3D2BD2
S1135CD00FDC1E23FB1800229B5E302B09DD0C23F6
S1135CE0FB189B7808221343DAB20C23FB189A7032
